{
  "_format": "hh-sol-artifact-1",
  "contractName": "VRFConsumerV2Plus",
  "sourceName": "@chainlink/contracts/src/v0.8/vrf/testhelpers/VRFConsumerV2Plus.sol",
  "abi": [
    {
      "inputs": [
        {
          "internalType": "address",
          "name": "vrfCoordinator",
          "type": "address"
        },
        {
          "internalType": "address",
          "name": "link",
          "type": "address"
        }
      ],
      "stateMutability": "nonpayable",
      "type": "constructor"
    },
    {
      "inputs": [
        {
          "internalType": "address",
          "name": "have",
          "type": "address"
        },
        {
          "internalType": "address",
          "name": "want",
          "type": "address"
        }
      ],
      "name": "OnlyCoordinatorCanFulfill",
      "type": "error"
    },
    {
      "inputs": [
        {
          "internalType": "address",
          "name": "have",
          "type": "address"
        },
        {
          "internalType": "address",
          "name": "owner",
          "type": "address"
        },
        {
          "internalType": "address",
          "name": "coordinator",
          "type": "address"
        }
      ],
      "name": "OnlyOwnerOrCoordinator",
      "type": "error"
    },
    {
      "inputs": [],
      "name": "ZeroAddress",
      "type": "error"
    },
    {
      "anonymous": false,
      "inputs": [
        {
          "indexed": false,
          "internalType": "address",
          "name": "vrfCoordinator",
          "type": "address"
        }
      ],
      "name": "CoordinatorSet",
      "type": "event"
    },
    {
      "anonymous": false,
      "inputs": [
        {
          "indexed": true,
          "internalType": "address",
          "name": "from",
          "type": "address"
        },
        {
          "indexed": true,
          "internalType": "address",
          "name": "to",
          "type": "address"
        }
      ],
      "name": "OwnershipTransferRequested",
      "type": "event"
    },
    {
      "anonymous": false,
      "inputs": [
        {
          "indexed": true,
          "internalType": "address",
          "name": "from",
          "type": "address"
        },
        {
          "indexed": true,
          "internalType": "address",
          "name": "to",
          "type": "address"
        }
      ],
      "name": "OwnershipTransferred",
      "type": "event"
    },
    {
      "inputs": [],
      "name": "acceptOwnership",
      "outputs": [],
      "stateMutability": "nonpayable",
      "type": "function"
    },
    {
      "inputs": [
        {
          "internalType": "uint96",
          "name": "amount",
          "type": "uint96"
        }
      ],
      "name": "createSubscriptionAndFund",
      "outputs": [],
      "stateMutability": "nonpayable",
      "type": "function"
    },
    {
      "inputs": [],
      "name": "owner",
      "outputs": [
        {
          "internalType": "address",
          "name": "",
          "type": "address"
        }
      ],
      "stateMutability": "view",
      "type": "function"
    },
    {
      "inputs": [
        {
          "internalType": "uint256",
          "name": "requestId",
          "type": "uint256"
        },
        {
          "internalType": "uint256[]",
          "name": "randomWords",
          "type": "uint256[]"
        }
      ],
      "name": "rawFulfillRandomWords",
      "outputs": [],
      "stateMutability": "nonpayable",
      "type": "function"
    },
    {
      "inputs": [
        {
          "components": [
            {
              "internalType": "bytes32",
              "name": "keyHash",
              "type": "bytes32"
            },
            {
              "internalType": "uint256",
              "name": "subId",
              "type": "uint256"
            },
            {
              "internalType": "uint16",
              "name": "requestConfirmations",
              "type": "uint16"
            },
            {
              "internalType": "uint32",
              "name": "callbackGasLimit",
              "type": "uint32"
            },
            {
              "internalType": "uint32",
              "name": "numWords",
              "type": "uint32"
            },
            {
              "internalType": "bytes",
              "name": "extraArgs",
              "type": "bytes"
            }
          ],
          "internalType": "struct VRFV2PlusClient.RandomWordsRequest",
          "name": "req",
          "type": "tuple"
        }
      ],
      "name": "requestRandomness",
      "outputs": [
        {
          "internalType": "uint256",
          "name": "",
          "type": "uint256"
        }
      ],
      "stateMutability": "nonpayable",
      "type": "function"
    },
    {
      "inputs": [],
      "name": "s_gasAvailable",
      "outputs": [
        {
          "internalType": "uint256",
          "name": "",
          "type": "uint256"
        }
      ],
      "stateMutability": "view",
      "type": "function"
    },
    {
      "inputs": [
        {
          "internalType": "uint256",
          "name": "",
          "type": "uint256"
        }
      ],
      "name": "s_randomWords",
      "outputs": [
        {
          "internalType": "uint256",
          "name": "",
          "type": "uint256"
        }
      ],
      "stateMutability": "view",
      "type": "function"
    },
    {
      "inputs": [],
      "name": "s_requestId",
      "outputs": [
        {
          "internalType": "uint256",
          "name": "",
          "type": "uint256"
        }
      ],
      "stateMutability": "view",
      "type": "function"
    },
    {
      "inputs": [],
      "name": "s_subId",
      "outputs": [
        {
          "internalType": "uint256",
          "name": "",
          "type": "uint256"
        }
      ],
      "stateMutability": "view",
      "type": "function"
    },
    {
      "inputs": [],
      "name": "s_vrfCoordinator",
      "outputs": [
        {
          "internalType": "contract IVRFCoordinatorV2Plus",
          "name": "",
          "type": "address"
        }
      ],
      "stateMutability": "view",
      "type": "function"
    },
    {
      "inputs": [
        {
          "internalType": "address",
          "name": "_vrfCoordinator",
          "type": "address"
        }
      ],
      "name": "setCoordinator",
      "outputs": [],
      "stateMutability": "nonpayable",
      "type": "function"
    },
    {
      "inputs": [
        {
          "internalType": "uint96",
          "name": "amount",
          "type": "uint96"
        }
      ],
      "name": "topUpSubscription",
      "outputs": [],
      "stateMutability": "nonpayable",
      "type": "function"
    },
    {
      "inputs": [
        {
          "internalType": "address",
          "name": "to",
          "type": "address"
        }
      ],
      "name": "transferOwnership",
      "outputs": [],
      "stateMutability": "nonpayable",
      "type": "function"
    },
    {
      "inputs": [
        {
          "internalType": "address[]",
          "name": "consumers",
          "type": "address[]"
        }
      ],
      "name": "updateSubscription",
      "outputs": [],
      "stateMutability": "nonpayable",
      "type": "function"
    }
  ],
  "bytecode": "0x60806040523480156200001157600080fd5b50604051620021d0380380620021d0833981810160405281019062000037919062000403565b81338060008073ffffffffffffffffffffffffffffffffffffffff168273ffffffffffffffffffffffffffffffffffffffff1603620000ad576040517f08c379a0000000000000000000000000000000000000000000000000000000008152600401620000a490620004ab565b60405180910390fd5b816000806101000a81548173ffffffffffffffffffffffffffffffffffffffff021916908373ffffffffffffffffffffffffffffffffffffffff160217905550600073ffffffffffffffffffffffffffffffffffffffff168173ffffffffffffffffffffffffffffffffffffffff1614620001345762000133816200026a60201b60201c565b5b505050600073ffffffffffffffffffffffffffffffffffffffff168173ffffffffffffffffffffffffffffffffffffffff16036200019e576040517fd92e233d00000000000000000000000000000000000000000000000000000000815260040160405180910390fd5b80600260006101000a81548173ffffffffffffffffffffffffffffffffffffffff021916908373ffffffffffffffffffffffffffffffffffffffff1602179055505081600560006101000a81548173ffffffffffffffffffffffffffffffffffffffff021916908373ffffffffffffffffffffffffffffffffffffffff16021790555080600660006101000a81548173ffffffffffffffffffffffffffffffffffffffff021916908373ffffffffffffffffffffffffffffffffffffffff16021790555050506200053f565b3373ffffffffffffffffffffffffffffffffffffffff168173ffffffffffffffffffffffffffffffffffffffff1603620002db576040517f08c379a0000000000000000000000000000000000000000000000000000000008152600401620002d2906200051d565b60405180910390fd5b80600160006101000a81548173ffffffffffffffffffffffffffffffffffffffff021916908373ffffffffffffffffffffffffffffffffffffffff1602179055508073ffffffffffffffffffffffffffffffffffffffff1660008054906101000a900473ffffffffffffffffffffffffffffffffffffffff1673ffffffffffffffffffffffffffffffffffffffff167fed8889f560326eb138920d842192f0eb3dd22b4f139c87a2c57538e05bae127860405160405180910390a350565b600080fd5b600073ffffffffffffffffffffffffffffffffffffffff82169050919050565b6000620003cb826200039e565b9050919050565b620003dd81620003be565b8114620003e957600080fd5b50565b600081519050620003fd81620003d2565b92915050565b600080604083850312156200041d576200041c62000399565b5b60006200042d85828601620003ec565b92505060206200044085828601620003ec565b9150509250929050565b600082825260208201905092915050565b7f43616e6e6f7420736574206f776e657220746f207a65726f0000000000000000600082015250565b6000620004936018836200044a565b9150620004a0826200045b565b602082019050919050565b60006020820190508181036000830152620004c68162000484565b9050919050565b7f43616e6e6f74207472616e7366657220746f2073656c66000000000000000000600082015250565b6000620005056017836200044a565b91506200051282620004cd565b602082019050919050565b600060208201905081810360008301526200053881620004f6565b9050919050565b611c81806200054f6000396000f3fe608060405234801561001057600080fd5b50600436106100ea5760003560e01c80639eccacf61161008c578063ee919aef11610066578063ee919aef146101fd578063f08c5daa1461022d578063f2fde38b1461024b578063f6eaffc814610267576100ea565b80639eccacf6146101a5578063cf62c8ab146101c3578063e89e106a146101df576100ea565b8063706da1ca116100c8578063706da1ca1461014357806379ba5097146101615780638da5cb5b1461016b5780638ea9811714610189576100ea565b80631fe543e3146100ef5780632fa4e4421461010b57806336bfffed14610127575b600080fd5b61010960048036038101906101049190610fb2565b610297565b005b61012560048036038101906101209190611056565b61035d565b005b610141600480360381019061013c9190611230565b61048b565b005b61014b61059e565b6040516101589190611288565b60405180910390f35b6101696105a4565b005b610173610739565b60405161018091906112b2565b60405180910390f35b6101a3600480360381019061019e91906112cd565b610762565b005b6101ad610943565b6040516101ba9190611359565b60405180910390f35b6101dd60048036038101906101d89190611056565b610969565b005b6101e7610b87565b6040516101f49190611288565b60405180910390f35b61021760048036038101906102129190611398565b610b8d565b6040516102249190611288565b60405180910390f35b610235610c3d565b6040516102429190611288565b60405180910390f35b610265600480360381019061026091906112cd565b610c43565b005b610281600480360381019061027c91906113e1565b610c57565b60405161028e9190611288565b60405180910390f35b600260009054906101000a900473ffffffffffffffffffffffffffffffffffffffff1673ffffffffffffffffffffffffffffffffffffffff163373ffffffffffffffffffffffffffffffffffffffff161461034d5733600260009054906101000a900473ffffffffffffffffffffffffffffffffffffffff166040517f1cf993f400000000000000000000000000000000000000000000000000000000815260040161034492919061140e565b60405180910390fd5b610358838383610c7b565b505050565b6000600754036103a2576040517f08c379a000000000000000000000000000000000000000000000000000000000815260040161039990611494565b60405180910390fd5b600660009054906101000a900473ffffffffffffffffffffffffffffffffffffffff1673ffffffffffffffffffffffffffffffffffffffff16634000aea0600560009054906101000a900473ffffffffffffffffffffffffffffffffffffffff16836007546040516020016104179190611288565b6040516020818303038152906040526040518463ffffffff1660e01b815260040161044493929190611564565b6020604051808303816000875af1158015610463573d6000803e3d6000fd5b505050506040513d601f19601f8201168201806040525081019061048791906115da565b5050565b6000600754036104d0576040517f08c379a00000000000000000000000000000000000000000000000000000000081526004016104c790611653565b60405180910390fd5b60005b815181101561059a57600560009054906101000a900473ffffffffffffffffffffffffffffffffffffffff1673ffffffffffffffffffffffffffffffffffffffff1663bec4c08c6007548484815181106105305761052f611673565b5b60200260200101516040518363ffffffff1660e01b81526004016105559291906116a2565b600060405180830381600087803b15801561056f57600080fd5b505af1158015610583573d6000803e3d6000fd5b505050508080610592906116fa565b9150506104d3565b5050565b60075481565b600160009054906101000a900473ffffffffffffffffffffffffffffffffffffffff1673ffffffffffffffffffffffffffffffffffffffff163373ffffffffffffffffffffffffffffffffffffffff1614610634576040517f08c379a000000000000000000000000000000000000000000000000000000000815260040161062b9061178e565b60405180910390fd5b60008060009054906101000a900473ffffffffffffffffffffffffffffffffffffffff169050336000806101000a81548173ffffffffffffffffffffffffffffffffffffffff021916908373ffffffffffffffffffffffffffffffffffffffff1602179055506000600160006101000a81548173ffffffffffffffffffffffffffffffffffffffff021916908373ffffffffffffffffffffffffffffffffffffffff1602179055503373ffffffffffffffffffffffffffffffffffffffff168173ffffffffffffffffffffffffffffffffffffffff167f8be0079c531659141344cd1fd0a4f28419497f9722a3daafe3b4186f6b6457e060405160405180910390a350565b60008060009054906101000a900473ffffffffffffffffffffffffffffffffffffffff16905090565b61076a610739565b73ffffffffffffffffffffffffffffffffffffffff163373ffffffffffffffffffffffffffffffffffffffff16141580156107f35750600260009054906101000a900473ffffffffffffffffffffffffffffffffffffffff1673ffffffffffffffffffffffffffffffffffffffff163373ffffffffffffffffffffffffffffffffffffffff1614155b156108625733610801610739565b600260009054906101000a900473ffffffffffffffffffffffffffffffffffffffff166040517f061db9c1000000000000000000000000000000000000000000000000000000008152600401610859939291906117ae565b60405180910390fd5b600073ffffffffffffffffffffffffffffffffffffffff168173ffffffffffffffffffffffffffffffffffffffff16036108c8576040517fd92e233d00000000000000000000000000000000000000000000000000000000815260040160405180910390fd5b80600260006101000a81548173ffffffffffffffffffffffffffffffffffffffff021916908373ffffffffffffffffffffffffffffffffffffffff1602179055507fd1a6a14209a385a964d036e404cb5cfb71f4000cdb03c9366292430787261be68160405161093891906112b2565b60405180910390a150565b600260009054906101000a900473ffffffffffffffffffffffffffffffffffffffff1681565b600060075403610a9e57600560009054906101000a900473ffffffffffffffffffffffffffffffffffffffff1673ffffffffffffffffffffffffffffffffffffffff1663a21a23e46040518163ffffffff1660e01b81526004016020604051808303816000875af11580156109e2573d6000803e3d6000fd5b505050506040513d601f19601f82011682018060405250810190610a0691906117fa565b600781905550600560009054906101000a900473ffffffffffffffffffffffffffffffffffffffff1673ffffffffffffffffffffffffffffffffffffffff1663bec4c08c600754306040518363ffffffff1660e01b8152600401610a6b9291906116a2565b600060405180830381600087803b158015610a8557600080fd5b505af1158015610a99573d6000803e3d6000fd5b505050505b600660009054906101000a900473ffffffffffffffffffffffffffffffffffffffff1673ffffffffffffffffffffffffffffffffffffffff16634000aea0600560009054906101000a900473ffffffffffffffffffffffffffffffffffffffff1683600754604051602001610b139190611288565b6040516020818303038152906040526040518463ffffffff1660e01b8152600401610b4093929190611564565b6020604051808303816000875af1158015610b5f573d6000803e3d6000fd5b505050506040513d601f19601f82011682018060405250810190610b8391906115da565b5050565b60045481565b6000600560009054906101000a900473ffffffffffffffffffffffffffffffffffffffff1673ffffffffffffffffffffffffffffffffffffffff16639b1c385e836040518263ffffffff1660e01b8152600401610bea9190611ae5565b6020604051808303816000875af1158015610c09573d6000803e3d6000fd5b505050506040513d601f19601f82011682018060405250810190610c2d91906117fa565b6004819055506004549050919050565b60085481565b610c4b610cdd565b610c5481610d6d565b50565b60038181548110610c6757600080fd5b906000526020600020016000915090505481565b6004548314610cbf576040517f08c379a0000000000000000000000000000000000000000000000000000000008152600401610cb690611b53565b60405180910390fd5b5a600881905550818160039190610cd7929190610e99565b50505050565b60008054906101000a900473ffffffffffffffffffffffffffffffffffffffff1673ffffffffffffffffffffffffffffffffffffffff163373ffffffffffffffffffffffffffffffffffffffff1614610d6b576040517f08c379a0000000000000000000000000000000000000000000000000000000008152600401610d6290611bbf565b60405180910390fd5b565b3373ffffffffffffffffffffffffffffffffffffffff168173ffffffffffffffffffffffffffffffffffffffff1603610ddb576040517f08c379a0000000000000000000000000000000000000000000000000000000008152600401610dd290611c2b565b60405180910390fd5b80600160006101000a81548173ffffffffffffffffffffffffffffffffffffffff021916908373ffffffffffffffffffffffffffffffffffffffff1602179055508073ffffffffffffffffffffffffffffffffffffffff1660008054906101000a900473ffffffffffffffffffffffffffffffffffffffff1673ffffffffffffffffffffffffffffffffffffffff167fed8889f560326eb138920d842192f0eb3dd22b4f139c87a2c57538e05bae127860405160405180910390a350565b828054828255906000526020600020908101928215610ed5579160200282015b82811115610ed4578235825591602001919060010190610eb9565b5b509050610ee29190610ee6565b5090565b5b80821115610eff576000816000905550600101610ee7565b5090565b6000604051905090565b600080fd5b600080fd5b6000819050919050565b610f2a81610f17565b8114610f3557600080fd5b50565b600081359050610f4781610f21565b92915050565b600080fd5b600080fd5b600080fd5b60008083601f840112610f7257610f71610f4d565b5b8235905067ffffffffffffffff811115610f8f57610f8e610f52565b5b602083019150836020820283011115610fab57610faa610f57565b5b9250929050565b600080600060408486031215610fcb57610fca610f0d565b5b6000610fd986828701610f38565b935050602084013567ffffffffffffffff811115610ffa57610ff9610f12565b5b61100686828701610f5c565b92509250509250925092565b60006bffffffffffffffffffffffff82169050919050565b61103381611012565b811461103e57600080fd5b50565b6000813590506110508161102a565b92915050565b60006020828403121561106c5761106b610f0d565b5b600061107a84828501611041565b91505092915050565b6000601f19601f8301169050919050565b7f4e487b7100000000000000000000000000000000000000000000000000000000600052604160045260246000fd5b6110cc82611083565b810181811067ffffffffffffffff821117156110eb576110ea611094565b5b80604052505050565b60006110fe610f03565b905061110a82826110c3565b919050565b600067ffffffffffffffff82111561112a57611129611094565b5b602082029050602081019050919050565b600073ffffffffffffffffffffffffffffffffffffffff82169050919050565b60006111668261113b565b9050919050565b6111768161115b565b811461118157600080fd5b50565b6000813590506111938161116d565b92915050565b60006111ac6111a78461110f565b6110f4565b905080838252602082019050602084028301858111156111cf576111ce610f57565b5b835b818110156111f857806111e48882611184565b8452602084019350506020810190506111d1565b5050509392505050565b600082601f83011261121757611216610f4d565b5b8135611227848260208601611199565b91505092915050565b60006020828403121561124657611245610f0d565b5b600082013567ffffffffffffffff81111561126457611263610f12565b5b61127084828501611202565b91505092915050565b61128281610f17565b82525050565b600060208201905061129d6000830184611279565b92915050565b6112ac8161115b565b82525050565b60006020820190506112c760008301846112a3565b92915050565b6000602082840312156112e3576112e2610f0d565b5b60006112f184828501611184565b91505092915050565b6000819050919050565b600061131f61131a6113158461113b565b6112fa565b61113b565b9050919050565b600061133182611304565b9050919050565b600061134382611326565b9050919050565b61135381611338565b82525050565b600060208201905061136e600083018461134a565b92915050565b600080fd5b600060c0828403121561138f5761138e611374565b5b81905092915050565b6000602082840312156113ae576113ad610f0d565b5b600082013567ffffffffffffffff8111156113cc576113cb610f12565b5b6113d884828501611379565b91505092915050565b6000602082840312156113f7576113f6610f0d565b5b600061140584828501610f38565b91505092915050565b600060408201905061142360008301856112a3565b61143060208301846112a3565b9392505050565b600082825260208201905092915050565b7f737562206e6f7420736574000000000000000000000000000000000000000000600082015250565b600061147e600b83611437565b915061148982611448565b602082019050919050565b600060208201905081810360008301526114ad81611471565b9050919050565b60006114cf6114ca6114c584611012565b6112fa565b610f17565b9050919050565b6114df816114b4565b82525050565b600081519050919050565b600082825260208201905092915050565b60005b8381101561151f578082015181840152602081019050611504565b60008484015250505050565b6000611536826114e5565b61154081856114f0565b9350611550818560208601611501565b61155981611083565b840191505092915050565b600060608201905061157960008301866112a3565b61158660208301856114d6565b8181036040830152611598818461152b565b9050949350505050565b60008115159050919050565b6115b7816115a2565b81146115c257600080fd5b50565b6000815190506115d4816115ae565b92915050565b6000602082840312156115f0576115ef610f0d565b5b60006115fe848285016115c5565b91505092915050565b7f7375624944206e6f742073657400000000000000000000000000000000000000600082015250565b600061163d600d83611437565b915061164882611607565b602082019050919050565b6000602082019050818103600083015261166c81611630565b9050919050565b7f4e487b7100000000000000000000000000000000000000000000000000000000600052603260045260246000fd5b60006040820190506116b76000830185611279565b6116c460208301846112a3565b9392505050565b7f4e487b7100000000000000000000000000000000000000000000000000000000600052601160045260246000fd5b600061170582610f17565b91507fffffffffffffffffffffffffffffffffffffffffffffffffffffffffffffffff8203611737576117366116cb565b5b600182019050919050565b7f4d7573742062652070726f706f736564206f776e657200000000000000000000600082015250565b6000611778601683611437565b915061178382611742565b602082019050919050565b600060208201905081810360008301526117a78161176b565b9050919050565b60006060820190506117c360008301866112a3565b6117d060208301856112a3565b6117dd60408301846112a3565b949350505050565b6000815190506117f481610f21565b92915050565b6000602082840312156118105761180f610f0d565b5b600061181e848285016117e5565b91505092915050565b6000819050919050565b61183a81611827565b811461184557600080fd5b50565b60008135905061185781611831565b92915050565b600061186c6020840184611848565b905092915050565b61187d81611827565b82525050565b60006118926020840184610f38565b905092915050565b6118a381610f17565b82525050565b600061ffff82169050919050565b6118c0816118a9565b81146118cb57600080fd5b50565b6000813590506118dd816118b7565b92915050565b60006118f260208401846118ce565b905092915050565b611903816118a9565b82525050565b600063ffffffff82169050919050565b61192281611909565b811461192d57600080fd5b50565b60008135905061193f81611919565b92915050565b60006119546020840184611930565b905092915050565b61196581611909565b82525050565b600080fd5b600080fd5b600080fd5b6000808335600160200384360303811261199757611996611975565b5b83810192508235915060208301925067ffffffffffffffff8211156119bf576119be61196b565b5b6001820236038313156119d5576119d4611970565b5b509250929050565b600082825260208201905092915050565b82818337600083830152505050565b6000611a0983856119dd565b9350611a168385846119ee565b611a1f83611083565b840190509392505050565b600060c08301611a3d600084018461185d565b611a4a6000860182611874565b50611a586020840184611883565b611a65602086018261189a565b50611a7360408401846118e3565b611a8060408601826118fa565b50611a8e6060840184611945565b611a9b606086018261195c565b50611aa96080840184611945565b611ab6608086018261195c565b50611ac460a084018461197a565b85830360a0870152611ad78382846119fd565b925050508091505092915050565b60006020820190508181036000830152611aff8184611a2a565b905092915050565b7f7265717565737420494420697320696e636f7272656374000000000000000000600082015250565b6000611b3d601783611437565b9150611b4882611b07565b602082019050919050565b60006020820190508181036000830152611b6c81611b30565b9050919050565b7f4f6e6c792063616c6c61626c65206279206f776e657200000000000000000000600082015250565b6000611ba9601683611437565b9150611bb482611b73565b602082019050919050565b60006020820190508181036000830152611bd881611b9c565b9050919050565b7f43616e6e6f74207472616e7366657220746f2073656c66000000000000000000600082015250565b6000611c15601783611437565b9150611c2082611bdf565b602082019050919050565b60006020820190508181036000830152611c4481611c08565b905091905056fea264697066735822122028d0248f05eb3f1e40192d41d3773ed34f42dcc67f6a663cb21aec599791acd664736f6c63430008130033",
  "linkReferences": {},
  "deployedLinkReferences": {}
}