{
  "_format": "hh-sol-artifact-1",
  "contractName": "VRFCoordinatorV2_5Mock",
  "sourceName": "@chainlink/contracts/src/v0.8/vrf/mocks/VRFCoordinatorV2_5Mock.sol",
  "abi": [
    {
      "inputs": [
        {
          "internalType": "uint96",
          "name": "_baseFee",
          "type": "uint96"
        },
        {
          "internalType": "uint96",
          "name": "_gasPrice",
          "type": "uint96"
        },
        {
          "internalType": "int256",
          "name": "_weiPerUnitLink",
          "type": "int256"
        }
      ],
      "stateMutability": "nonpayable",
      "type": "constructor"
    },
    {
      "inputs": [
        {
          "internalType": "uint256",
          "name": "internalBalance",
          "type": "uint256"
        },
        {
          "internalType": "uint256",
          "name": "externalBalance",
          "type": "uint256"
        }
      ],
      "name": "BalanceInvariantViolated",
      "type": "error"
    },
    {
      "inputs": [],
      "name": "FailedToSendNative",
      "type": "error"
    },
    {
      "inputs": [],
      "name": "FailedToTransferLink",
      "type": "error"
    },
    {
      "inputs": [],
      "name": "IndexOutOfRange",
      "type": "error"
    },
    {
      "inputs": [],
      "name": "InsufficientBalance",
      "type": "error"
    },
    {
      "inputs": [],
      "name": "InvalidCalldata",
      "type": "error"
    },
    {
      "inputs": [
        {
          "internalType": "uint256",
          "name": "subId",
          "type": "uint256"
        },
        {
          "internalType": "address",
          "name": "consumer",
          "type": "address"
        }
      ],
      "name": "InvalidConsumer",
      "type": "error"
    },
    {
      "inputs": [],
      "name": "InvalidExtraArgsTag",
      "type": "error"
    },
    {
      "inputs": [],
      "name": "InvalidRandomWords",
      "type": "error"
    },
    {
      "inputs": [],
      "name": "InvalidRequest",
      "type": "error"
    },
    {
      "inputs": [],
      "name": "InvalidSubscription",
      "type": "error"
    },
    {
      "inputs": [],
      "name": "LinkAlreadySet",
      "type": "error"
    },
    {
      "inputs": [],
      "name": "LinkNotSet",
      "type": "error"
    },
    {
      "inputs": [
        {
          "internalType": "address",
          "name": "proposedOwner",
          "type": "address"
        }
      ],
      "name": "MustBeRequestedOwner",
      "type": "error"
    },
    {
      "inputs": [
        {
          "internalType": "address",
          "name": "owner",
          "type": "address"
        }
      ],
      "name": "MustBeSubOwner",
      "type": "error"
    },
    {
      "inputs": [],
      "name": "NotImplemented",
      "type": "error"
    },
    {
      "inputs": [],
      "name": "OnlyCallableFromLink",
      "type": "error"
    },
    {
      "inputs": [],
      "name": "PendingRequestExists",
      "type": "error"
    },
    {
      "inputs": [],
      "name": "Reentrant",
      "type": "error"
    },
    {
      "inputs": [],
      "name": "TooManyConsumers",
      "type": "error"
    },
    {
      "anonymous": false,
      "inputs": [],
      "name": "ConfigSet",
      "type": "event"
    },
    {
      "anonymous": false,
      "inputs": [
        {
          "indexed": false,
          "internalType": "address",
          "name": "to",
          "type": "address"
        },
        {
          "indexed": false,
          "internalType": "uint256",
          "name": "amount",
          "type": "uint256"
        }
      ],
      "name": "FundsRecovered",
      "type": "event"
    },
    {
      "anonymous": false,
      "inputs": [
        {
          "indexed": false,
          "internalType": "address",
          "name": "to",
          "type": "address"
        },
        {
          "indexed": false,
          "internalType": "uint256",
          "name": "amount",
          "type": "uint256"
        }
      ],
      "name": "NativeFundsRecovered",
      "type": "event"
    },
    {
      "anonymous": false,
      "inputs": [
        {
          "indexed": true,
          "internalType": "address",
          "name": "from",
          "type": "address"
        },
        {
          "indexed": true,
          "internalType": "address",
          "name": "to",
          "type": "address"
        }
      ],
      "name": "OwnershipTransferRequested",
      "type": "event"
    },
    {
      "anonymous": false,
      "inputs": [
        {
          "indexed": true,
          "internalType": "address",
          "name": "from",
          "type": "address"
        },
        {
          "indexed": true,
          "internalType": "address",
          "name": "to",
          "type": "address"
        }
      ],
      "name": "OwnershipTransferred",
      "type": "event"
    },
    {
      "anonymous": false,
      "inputs": [
        {
          "indexed": true,
          "internalType": "uint256",
          "name": "requestId",
          "type": "uint256"
        },
        {
          "indexed": false,
          "internalType": "uint256",
          "name": "outputSeed",
          "type": "uint256"
        },
        {
          "indexed": true,
          "internalType": "uint256",
          "name": "subId",
          "type": "uint256"
        },
        {
          "indexed": false,
          "internalType": "uint96",
          "name": "payment",
          "type": "uint96"
        },
        {
          "indexed": false,
          "internalType": "bool",
          "name": "nativePayment",
          "type": "bool"
        },
        {
          "indexed": false,
          "internalType": "bool",
          "name": "success",
          "type": "bool"
        },
        {
          "indexed": false,
          "internalType": "bool",
          "name": "onlyPremium",
          "type": "bool"
        }
      ],
      "name": "RandomWordsFulfilled",
      "type": "event"
    },
    {
      "anonymous": false,
      "inputs": [
        {
          "indexed": true,
          "internalType": "bytes32",
          "name": "keyHash",
          "type": "bytes32"
        },
        {
          "indexed": false,
          "internalType": "uint256",
          "name": "requestId",
          "type": "uint256"
        },
        {
          "indexed": false,
          "internalType": "uint256",
          "name": "preSeed",
          "type": "uint256"
        },
        {
          "indexed": true,
          "internalType": "uint256",
          "name": "subId",
          "type": "uint256"
        },
        {
          "indexed": false,
          "internalType": "uint16",
          "name": "minimumRequestConfirmations",
          "type": "uint16"
        },
        {
          "indexed": false,
          "internalType": "uint32",
          "name": "callbackGasLimit",
          "type": "uint32"
        },
        {
          "indexed": false,
          "internalType": "uint32",
          "name": "numWords",
          "type": "uint32"
        },
        {
          "indexed": false,
          "internalType": "bytes",
          "name": "extraArgs",
          "type": "bytes"
        },
        {
          "indexed": true,
          "internalType": "address",
          "name": "sender",
          "type": "address"
        }
      ],
      "name": "RandomWordsRequested",
      "type": "event"
    },
    {
      "anonymous": false,
      "inputs": [
        {
          "indexed": true,
          "internalType": "uint256",
          "name": "subId",
          "type": "uint256"
        },
        {
          "indexed": false,
          "internalType": "address",
          "name": "to",
          "type": "address"
        },
        {
          "indexed": false,
          "internalType": "uint256",
          "name": "amountLink",
          "type": "uint256"
        },
        {
          "indexed": false,
          "internalType": "uint256",
          "name": "amountNative",
          "type": "uint256"
        }
      ],
      "name": "SubscriptionCanceled",
      "type": "event"
    },
    {
      "anonymous": false,
      "inputs": [
        {
          "indexed": true,
          "internalType": "uint256",
          "name": "subId",
          "type": "uint256"
        },
        {
          "indexed": false,
          "internalType": "address",
          "name": "consumer",
          "type": "address"
        }
      ],
      "name": "SubscriptionConsumerAdded",
      "type": "event"
    },
    {
      "anonymous": false,
      "inputs": [
        {
          "indexed": true,
          "internalType": "uint256",
          "name": "subId",
          "type": "uint256"
        },
        {
          "indexed": false,
          "internalType": "address",
          "name": "consumer",
          "type": "address"
        }
      ],
      "name": "SubscriptionConsumerRemoved",
      "type": "event"
    },
    {
      "anonymous": false,
      "inputs": [
        {
          "indexed": true,
          "internalType": "uint256",
          "name": "subId",
          "type": "uint256"
        },
        {
          "indexed": false,
          "internalType": "address",
          "name": "owner",
          "type": "address"
        }
      ],
      "name": "SubscriptionCreated",
      "type": "event"
    },
    {
      "anonymous": false,
      "inputs": [
        {
          "indexed": true,
          "internalType": "uint256",
          "name": "subId",
          "type": "uint256"
        },
        {
          "indexed": false,
          "internalType": "uint256",
          "name": "oldBalance",
          "type": "uint256"
        },
        {
          "indexed": false,
          "internalType": "uint256",
          "name": "newBalance",
          "type": "uint256"
        }
      ],
      "name": "SubscriptionFunded",
      "type": "event"
    },
    {
      "anonymous": false,
      "inputs": [
        {
          "indexed": true,
          "internalType": "uint256",
          "name": "subId",
          "type": "uint256"
        },
        {
          "indexed": false,
          "internalType": "uint256",
          "name": "oldNativeBalance",
          "type": "uint256"
        },
        {
          "indexed": false,
          "internalType": "uint256",
          "name": "newNativeBalance",
          "type": "uint256"
        }
      ],
      "name": "SubscriptionFundedWithNative",
      "type": "event"
    },
    {
      "anonymous": false,
      "inputs": [
        {
          "indexed": true,
          "internalType": "uint256",
          "name": "subId",
          "type": "uint256"
        },
        {
          "indexed": false,
          "internalType": "address",
          "name": "from",
          "type": "address"
        },
        {
          "indexed": false,
          "internalType": "address",
          "name": "to",
          "type": "address"
        }
      ],
      "name": "SubscriptionOwnerTransferRequested",
      "type": "event"
    },
    {
      "anonymous": false,
      "inputs": [
        {
          "indexed": true,
          "internalType": "uint256",
          "name": "subId",
          "type": "uint256"
        },
        {
          "indexed": false,
          "internalType": "address",
          "name": "from",
          "type": "address"
        },
        {
          "indexed": false,
          "internalType": "address",
          "name": "to",
          "type": "address"
        }
      ],
      "name": "SubscriptionOwnerTransferred",
      "type": "event"
    },
    {
      "inputs": [],
      "name": "LINK",
      "outputs": [
        {
          "internalType": "contract LinkTokenInterface",
          "name": "",
          "type": "address"
        }
      ],
      "stateMutability": "view",
      "type": "function"
    },
    {
      "inputs": [],
      "name": "LINK_NATIVE_FEED",
      "outputs": [
        {
          "internalType": "contract AggregatorV3Interface",
          "name": "",
          "type": "address"
        }
      ],
      "stateMutability": "view",
      "type": "function"
    },
    {
      "inputs": [],
      "name": "MAX_CONSUMERS",
      "outputs": [
        {
          "internalType": "uint16",
          "name": "",
          "type": "uint16"
        }
      ],
      "stateMutability": "view",
      "type": "function"
    },
    {
      "inputs": [],
      "name": "acceptOwnership",
      "outputs": [],
      "stateMutability": "nonpayable",
      "type": "function"
    },
    {
      "inputs": [
        {
          "internalType": "uint256",
          "name": "subId",
          "type": "uint256"
        }
      ],
      "name": "acceptSubscriptionOwnerTransfer",
      "outputs": [],
      "stateMutability": "nonpayable",
      "type": "function"
    },
    {
      "inputs": [
        {
          "internalType": "uint256",
          "name": "subId",
          "type": "uint256"
        },
        {
          "internalType": "address",
          "name": "consumer",
          "type": "address"
        }
      ],
      "name": "addConsumer",
      "outputs": [],
      "stateMutability": "nonpayable",
      "type": "function"
    },
    {
      "inputs": [
        {
          "internalType": "uint256",
          "name": "_subId",
          "type": "uint256"
        },
        {
          "internalType": "address",
          "name": "_to",
          "type": "address"
        }
      ],
      "name": "cancelSubscription",
      "outputs": [],
      "stateMutability": "nonpayable",
      "type": "function"
    },
    {
      "inputs": [
        {
          "internalType": "uint256",
          "name": "_subId",
          "type": "uint256"
        },
        {
          "internalType": "address",
          "name": "_consumer",
          "type": "address"
        }
      ],
      "name": "consumerIsAdded",
      "outputs": [
        {
          "internalType": "bool",
          "name": "",
          "type": "bool"
        }
      ],
      "stateMutability": "view",
      "type": "function"
    },
    {
      "inputs": [],
      "name": "createSubscription",
      "outputs": [
        {
          "internalType": "uint256",
          "name": "subId",
          "type": "uint256"
        }
      ],
      "stateMutability": "nonpayable",
      "type": "function"
    },
    {
      "inputs": [
        {
          "internalType": "uint256",
          "name": "_requestId",
          "type": "uint256"
        },
        {
          "internalType": "address",
          "name": "_consumer",
          "type": "address"
        }
      ],
      "name": "fulfillRandomWords",
      "outputs": [],
      "stateMutability": "nonpayable",
      "type": "function"
    },
    {
      "inputs": [
        {
          "internalType": "uint256",
          "name": "_requestId",
          "type": "uint256"
        },
        {
          "internalType": "address",
          "name": "_consumer",
          "type": "address"
        },
        {
          "internalType": "uint256[]",
          "name": "_words",
          "type": "uint256[]"
        }
      ],
      "name": "fulfillRandomWordsWithOverride",
      "outputs": [],
      "stateMutability": "nonpayable",
      "type": "function"
    },
    {
      "inputs": [
        {
          "internalType": "uint256",
          "name": "_subId",
          "type": "uint256"
        },
        {
          "internalType": "uint256",
          "name": "_amount",
          "type": "uint256"
        }
      ],
      "name": "fundSubscription",
      "outputs": [],
      "stateMutability": "nonpayable",
      "type": "function"
    },
    {
      "inputs": [
        {
          "internalType": "uint256",
          "name": "subId",
          "type": "uint256"
        }
      ],
      "name": "fundSubscriptionWithNative",
      "outputs": [],
      "stateMutability": "payable",
      "type": "function"
    },
    {
      "inputs": [
        {
          "internalType": "uint256",
          "name": "startIndex",
          "type": "uint256"
        },
        {
          "internalType": "uint256",
          "name": "maxCount",
          "type": "uint256"
        }
      ],
      "name": "getActiveSubscriptionIds",
      "outputs": [
        {
          "internalType": "uint256[]",
          "name": "ids",
          "type": "uint256[]"
        }
      ],
      "stateMutability": "view",
      "type": "function"
    },
    {
      "inputs": [
        {
          "internalType": "uint256",
          "name": "subId",
          "type": "uint256"
        }
      ],
      "name": "getSubscription",
      "outputs": [
        {
          "internalType": "uint96",
          "name": "balance",
          "type": "uint96"
        },
        {
          "internalType": "uint96",
          "name": "nativeBalance",
          "type": "uint96"
        },
        {
          "internalType": "uint64",
          "name": "reqCount",
          "type": "uint64"
        },
        {
          "internalType": "address",
          "name": "subOwner",
          "type": "address"
        },
        {
          "internalType": "address[]",
          "name": "consumers",
          "type": "address[]"
        }
      ],
      "stateMutability": "view",
      "type": "function"
    },
    {
      "inputs": [],
      "name": "i_base_fee",
      "outputs": [
        {
          "internalType": "uint96",
          "name": "",
          "type": "uint96"
        }
      ],
      "stateMutability": "view",
      "type": "function"
    },
    {
      "inputs": [],
      "name": "i_gas_price",
      "outputs": [
        {
          "internalType": "uint96",
          "name": "",
          "type": "uint96"
        }
      ],
      "stateMutability": "view",
      "type": "function"
    },
    {
      "inputs": [],
      "name": "i_wei_per_unit_link",
      "outputs": [
        {
          "internalType": "int256",
          "name": "",
          "type": "int256"
        }
      ],
      "stateMutability": "view",
      "type": "function"
    },
    {
      "inputs": [
        {
          "internalType": "address",
          "name": "",
          "type": "address"
        },
        {
          "internalType": "uint256",
          "name": "amount",
          "type": "uint256"
        },
        {
          "internalType": "bytes",
          "name": "data",
          "type": "bytes"
        }
      ],
      "name": "onTokenTransfer",
      "outputs": [],
      "stateMutability": "nonpayable",
      "type": "function"
    },
    {
      "inputs": [],
      "name": "owner",
      "outputs": [
        {
          "internalType": "address",
          "name": "",
          "type": "address"
        }
      ],
      "stateMutability": "view",
      "type": "function"
    },
    {
      "inputs": [
        {
          "internalType": "uint256",
          "name": "subId",
          "type": "uint256"
        }
      ],
      "name": "ownerCancelSubscription",
      "outputs": [],
      "stateMutability": "nonpayable",
      "type": "function"
    },
    {
      "inputs": [
        {
          "internalType": "uint256",
          "name": "",
          "type": "uint256"
        }
      ],
      "name": "pendingRequestExists",
      "outputs": [
        {
          "internalType": "bool",
          "name": "",
          "type": "bool"
        }
      ],
      "stateMutability": "pure",
      "type": "function"
    },
    {
      "inputs": [
        {
          "internalType": "address",
          "name": "to",
          "type": "address"
        }
      ],
      "name": "recoverFunds",
      "outputs": [],
      "stateMutability": "nonpayable",
      "type": "function"
    },
    {
      "inputs": [
        {
          "internalType": "address payable",
          "name": "to",
          "type": "address"
        }
      ],
      "name": "recoverNativeFunds",
      "outputs": [],
      "stateMutability": "nonpayable",
      "type": "function"
    },
    {
      "inputs": [
        {
          "internalType": "uint256",
          "name": "_subId",
          "type": "uint256"
        },
        {
          "internalType": "address",
          "name": "_consumer",
          "type": "address"
        }
      ],
      "name": "removeConsumer",
      "outputs": [],
      "stateMutability": "nonpayable",
      "type": "function"
    },
    {
      "inputs": [
        {
          "components": [
            {
              "internalType": "bytes32",
              "name": "keyHash",
              "type": "bytes32"
            },
            {
              "internalType": "uint256",
              "name": "subId",
              "type": "uint256"
            },
            {
              "internalType": "uint16",
              "name": "requestConfirmations",
              "type": "uint16"
            },
            {
              "internalType": "uint32",
              "name": "callbackGasLimit",
              "type": "uint32"
            },
            {
              "internalType": "uint32",
              "name": "numWords",
              "type": "uint32"
            },
            {
              "internalType": "bytes",
              "name": "extraArgs",
              "type": "bytes"
            }
          ],
          "internalType": "struct VRFV2PlusClient.RandomWordsRequest",
          "name": "_req",
          "type": "tuple"
        }
      ],
      "name": "requestRandomWords",
      "outputs": [
        {
          "internalType": "uint256",
          "name": "",
          "type": "uint256"
        }
      ],
      "stateMutability": "nonpayable",
      "type": "function"
    },
    {
      "inputs": [
        {
          "internalType": "uint256",
          "name": "subId",
          "type": "uint256"
        },
        {
          "internalType": "address",
          "name": "newOwner",
          "type": "address"
        }
      ],
      "name": "requestSubscriptionOwnerTransfer",
      "outputs": [],
      "stateMutability": "nonpayable",
      "type": "function"
    },
    {
      "inputs": [],
      "name": "s_config",
      "outputs": [
        {
          "internalType": "uint16",
          "name": "minimumRequestConfirmations",
          "type": "uint16"
        },
        {
          "internalType": "uint32",
          "name": "maxGasLimit",
          "type": "uint32"
        },
        {
          "internalType": "bool",
          "name": "reentrancyLock",
          "type": "bool"
        },
        {
          "internalType": "uint32",
          "name": "stalenessSeconds",
          "type": "uint32"
        },
        {
          "internalType": "uint32",
          "name": "gasAfterPaymentCalculation",
          "type": "uint32"
        },
        {
          "internalType": "uint32",
          "name": "fulfillmentFlatFeeNativePPM",
          "type": "uint32"
        },
        {
          "internalType": "uint32",
          "name": "fulfillmentFlatFeeLinkDiscountPPM",
          "type": "uint32"
        },
        {
          "internalType": "uint8",
          "name": "nativePremiumPercentage",
          "type": "uint8"
        },
        {
          "internalType": "uint8",
          "name": "linkPremiumPercentage",
          "type": "uint8"
        }
      ],
      "stateMutability": "view",
      "type": "function"
    },
    {
      "inputs": [],
      "name": "s_currentSubNonce",
      "outputs": [
        {
          "internalType": "uint64",
          "name": "",
          "type": "uint64"
        }
      ],
      "stateMutability": "view",
      "type": "function"
    },
    {
      "inputs": [],
      "name": "s_totalBalance",
      "outputs": [
        {
          "internalType": "uint96",
          "name": "",
          "type": "uint96"
        }
      ],
      "stateMutability": "view",
      "type": "function"
    },
    {
      "inputs": [],
      "name": "s_totalNativeBalance",
      "outputs": [
        {
          "internalType": "uint96",
          "name": "",
          "type": "uint96"
        }
      ],
      "stateMutability": "view",
      "type": "function"
    },
    {
      "inputs": [],
      "name": "setConfig",
      "outputs": [],
      "stateMutability": "nonpayable",
      "type": "function"
    },
    {
      "inputs": [
        {
          "internalType": "address",
          "name": "link",
          "type": "address"
        },
        {
          "internalType": "address",
          "name": "linkNativeFeed",
          "type": "address"
        }
      ],
      "name": "setLINKAndLINKNativeFeed",
      "outputs": [],
      "stateMutability": "nonpayable",
      "type": "function"
    },
    {
      "inputs": [
        {
          "internalType": "address",
          "name": "to",
          "type": "address"
        }
      ],
      "name": "transferOwnership",
      "outputs": [],
      "stateMutability": "nonpayable",
      "type": "function"
    },
    {
      "inputs": [
        {
          "internalType": "address",
          "name": "recipient",
          "type": "address"
        }
      ],
      "name": "withdraw",
      "outputs": [],
      "stateMutability": "nonpayable",
      "type": "function"
    },
    {
      "inputs": [
        {
          "internalType": "address payable",
          "name": "recipient",
          "type": "address"
        }
      ],
      "name": "withdrawNative",
      "outputs": [],
      "stateMutability": "nonpayable",
      "type": "function"
    }
  ],
  "bytecode": "0x60e06040526001600e556064600f553480156200001b57600080fd5b506040516200669a3803806200669a8339818101604052810190620000419190620005f3565b338060008073ffffffffffffffffffffffffffffffffffffffff168273ffffffffffffffffffffffffffffffffffffffff1603620000b6576040517f08c379a0000000000000000000000000000000000000000000000000000000008152600401620000ad90620006b0565b60405180910390fd5b816000806101000a81548173ffffffffffffffffffffffffffffffffffffffff021916908373ffffffffffffffffffffffffffffffffffffffff160217905550600073ffffffffffffffffffffffffffffffffffffffff168173ffffffffffffffffffffffffffffffffffffffff16146200013d576200013c81620001a960201b60201c565b5b505050826bffffffffffffffffffffffff166080816bffffffffffffffffffffffff1681525050816bffffffffffffffffffffffff1660a0816bffffffffffffffffffffffff16815250508060c08181525050620001a0620002d860201b60201c565b505050620007b6565b3373ffffffffffffffffffffffffffffffffffffffff168173ffffffffffffffffffffffffffffffffffffffff16036200021a576040517f08c379a0000000000000000000000000000000000000000000000000000000008152600401620002119062000722565b60405180910390fd5b80600160006101000a81548173ffffffffffffffffffffffffffffffffffffffff021916908373ffffffffffffffffffffffffffffffffffffffff1602179055508073ffffffffffffffffffffffffffffffffffffffff1660008054906101000a900473ffffffffffffffffffffffffffffffffffffffff1673ffffffffffffffffffffffffffffffffffffffff167fed8889f560326eb138920d842192f0eb3dd22b4f139c87a2c57538e05bae127860405160405180910390a350565b620002e8620004d760201b60201c565b604051806101200160405280600061ffff168152602001600063ffffffff168152602001600015158152602001600063ffffffff168152602001600063ffffffff168152602001600063ffffffff168152602001600063ffffffff168152602001600060ff168152602001600060ff16815250600c60008201518160000160006101000a81548161ffff021916908361ffff16021790555060208201518160000160026101000a81548163ffffffff021916908363ffffffff16021790555060408201518160000160066101000a81548160ff02191690831515021790555060608201518160000160076101000a81548163ffffffff021916908363ffffffff160217905550608082015181600001600b6101000a81548163ffffffff021916908363ffffffff16021790555060a082015181600001600f6101000a81548163ffffffff021916908363ffffffff16021790555060c08201518160000160136101000a81548163ffffffff021916908363ffffffff16021790555060e08201518160000160176101000a81548160ff021916908360ff1602179055506101008201518160000160186101000a81548160ff021916908360ff1602179055509050507f4b2974a542484cba2783812ff8033f7fc682cac2fe0905c28c5e27869b3155be60405160405180910390a1565b60008054906101000a900473ffffffffffffffffffffffffffffffffffffffff1673ffffffffffffffffffffffffffffffffffffffff163373ffffffffffffffffffffffffffffffffffffffff161462000568576040517f08c379a00000000000000000000000000000000000000000000000000000000081526004016200055f9062000794565b60405180910390fd5b565b600080fd5b60006bffffffffffffffffffffffff82169050919050565b62000592816200056f565b81146200059e57600080fd5b50565b600081519050620005b28162000587565b92915050565b6000819050919050565b620005cd81620005b8565b8114620005d957600080fd5b50565b600081519050620005ed81620005c2565b92915050565b6000806000606084860312156200060f576200060e6200056a565b5b60006200061f86828701620005a1565b93505060206200063286828701620005a1565b92505060406200064586828701620005dc565b9150509250925092565b600082825260208201905092915050565b7f43616e6e6f7420736574206f776e657220746f207a65726f0000000000000000600082015250565b6000620006986018836200064f565b9150620006a58262000660565b602082019050919050565b60006020820190508181036000830152620006cb8162000689565b9050919050565b7f43616e6e6f74207472616e7366657220746f2073656c66000000000000000000600082015250565b60006200070a6017836200064f565b91506200071782620006d2565b602082019050919050565b600060208201905081810360008301526200073d81620006fb565b9050919050565b7f4f6e6c792063616c6c61626c65206279206f776e657200000000000000000000600082015250565b60006200077c6016836200064f565b9150620007898262000744565b602082019050919050565b60006020820190508181036000830152620007af816200076d565b9050919050565b60805160a05160c051615e9f620007fb60003960008181610d66015261116b015260008181610ce10152613280015260008181610d2601526111d30152615e9f6000f3fe60806040526004361061020f5760003560e01c80638b673e7a11610118578063aefb212f116100a0578063dac83d291161006f578063dac83d2914610748578063dc311dd314610771578063dcab3dcf146107b2578063e72f6e30146107dd578063f2fde38b146108065761020f565b8063aefb212f14610690578063b2a7cac5146106cd578063bec4c08c146106f6578063cb6317971461071f5761020f565b80639b1c385e116100e75780639b1c385e146105ab5780639d40a6fd146105e8578063a21a23e414610613578063a4c0ed361461063e578063aa433aff146106675761020f565b80638b673e7a146105105780638da5cb5b14610527578063953e9c751461055257806395b55cfc1461058f5761020f565b806341af6c871161019b57806372e9d5651161016a57806372e9d5651461045157806379ba50971461047c578063808974ff146104935780638402595e146104bc57806386fe91c7146104e55761020f565b806341af6c871461039757806351cff8d9146103d457806364d51a2a146103fd57806365982744146104285761020f565b806313478329116101e257806313478329146102c257806318e3dd27146102ed5780631b6b6d23146103185780631eebc117146103435780632f622e6b1461036e5761020f565b8063088070f51461021457806308e3898e146102475780630ae0954014610270578063115e3c0d14610299575b600080fd5b34801561022057600080fd5b5061022961082f565b60405161023e9998979695949392919061462a565b60405180910390f35b34801561025357600080fd5b5061026e600480360381019061026991906148b8565b6108f0565b005b34801561027c57600080fd5b5061029760048036038101906102929190614927565b610e69565b005b3480156102a557600080fd5b506102c060048036038101906102bb9190614967565b610f80565b005b3480156102ce57600080fd5b506102d7611169565b6040516102e491906149c0565b60405180910390f35b3480156102f957600080fd5b5061030261118d565b60405161030f9190614a02565b60405180910390f35b34801561032457600080fd5b5061032d6111ab565b60405161033a9190614a7c565b60405180910390f35b34801561034f57600080fd5b506103586111d1565b6040516103659190614a02565b60405180910390f35b34801561037a57600080fd5b5061039560048036038101906103909190614ad5565b6111f5565b005b3480156103a357600080fd5b506103be60048036038101906103b99190614b02565b6112e3565b6040516103cb9190614b2f565b60405180910390f35b3480156103e057600080fd5b506103fb60048036038101906103f69190614b4a565b611317565b005b34801561040957600080fd5b5061041261151d565b60405161041f9190614b77565b60405180910390f35b34801561043457600080fd5b5061044f600480360381019061044a9190614b92565b611522565b005b34801561045d57600080fd5b50610466611638565b6040516104739190614bf3565b60405180910390f35b34801561048857600080fd5b5061049161165e565b005b34801561049f57600080fd5b506104ba60048036038101906104b59190614927565b6117f3565b005b3480156104c857600080fd5b506104e360048036038101906104de9190614ad5565b611853565b005b3480156104f157600080fd5b506104fa6119d0565b6040516105079190614a02565b60405180910390f35b34801561051c57600080fd5b506105256119ee565b005b34801561053357600080fd5b5061053c611be5565b6040516105499190614c1d565b60405180910390f35b34801561055e57600080fd5b5061057960048036038101906105749190614927565b611c0e565b6040516105869190614b2f565b60405180910390f35b6105a960048036038101906105a49190614b02565b611c79565b005b3480156105b757600080fd5b506105d260048036038101906105cd9190614c5c565b611e0c565b6040516105df9190614cb4565b60405180910390f35b3480156105f457600080fd5b506105fd612139565b60405161060a9190614cf2565b60405180910390f35b34801561061f57600080fd5b50610628612153565b6040516106359190614cb4565b60405180910390f35b34801561064a57600080fd5b5061066560048036038101906106609190614d68565b61248b565b005b34801561067357600080fd5b5061068e60048036038101906106899190614b02565b6126f9565b005b34801561069c57600080fd5b506106b760048036038101906106b29190614967565b612753565b6040516106c49190614e9a565b60405180910390f35b3480156106d957600080fd5b506106f460048036038101906106ef9190614b02565b612887565b005b34801561070257600080fd5b5061071d60048036038101906107189190614927565b612a98565b005b34801561072b57600080fd5b5061074660048036038101906107419190614927565b612c36565b005b34801561075457600080fd5b5061076f600480360381019061076a9190614927565b612ff5565b005b34801561077d57600080fd5b5061079860048036038101906107939190614b02565b6130f9565b6040516107a9959493929190614f7a565b60405180910390f35b3480156107be57600080fd5b506107c761327e565b6040516107d49190614a02565b60405180910390f35b3480156107e957600080fd5b5061080460048036038101906107ff9190614b4a565b6132a2565b005b34801561081257600080fd5b5061082d60048036038101906108289190614b4a565b613574565b005b600c8060000160009054906101000a900461ffff16908060000160029054906101000a900463ffffffff16908060000160069054906101000a900460ff16908060000160079054906101000a900463ffffffff169080600001600b9054906101000a900463ffffffff169080600001600f9054906101000a900463ffffffff16908060000160139054906101000a900463ffffffff16908060000160179054906101000a900460ff16908060000160189054906101000a900460ff16905089565b60005a90506000601060008681526020019081526020016000206000015403610945576040517f41abc80100000000000000000000000000000000000000000000000000000000815260040160405180910390fd5b600060106000868152602001908152602001600020604051806080016040529081600082015481526020016001820160009054906101000a900463ffffffff1663ffffffff1663ffffffff1681526020016001820160049054906101000a900463ffffffff1663ffffffff1663ffffffff1681526020016002820180546109cb90615003565b80601f01602080910402602001604051908101604052809291908181526020018280546109f790615003565b8015610a445780601f10610a1957610100808354040283529160200191610a44565b820191906000526020600020905b815481529060010190602001808311610a2757829003601f168201915b50505050508152505090506000835103610b2657806040015163ffffffff1667ffffffffffffffff811115610a7c57610a7b614775565b5b604051908082528060200260200182016040528015610aaa5781602001602082028036833780820191505090505b50925060005b816040015163ffffffff16811015610b20578581604051602001610ad5929190615034565b6040516020818303038152906040528051906020012060001c848281518110610b0157610b0061505d565b5b6020026020010181815250508080610b18906150bb565b915050610ab0565b50610b6b565b806040015163ffffffff16835114610b6a576040517f3f3df5b600000000000000000000000000000000000000000000000000000000815260040160405180910390fd5b5b600080631fe543e360e01b8786604051602401610b89929190615103565b604051602081830303815290604052907bffffffffffffffffffffffffffffffffffffffffffffffffffffffff19166020820180517bffffffffffffffffffffffffffffffffffffffffffffffffffffffff838183161783525050505090506001600c60000160066101000a81548160ff02191690831515021790555060008673ffffffffffffffffffffffffffffffffffffffff16846020015163ffffffff1683604051610c3891906151a4565b60006040518083038160008787f1925050503d8060008114610c76576040519150601f19603f3d011682016040523d82523d6000602084013e610c7b565b606091505b505090506000600c60000160066101000a81548160ff0219169083151502179055506000600185606001516001876060015151610cb891906151bb565b81518110610cc957610cc861505d565b5b602001015160f81c60f81b60f81c60ff1614905060007f00000000000000000000000000000000000000000000000000000000000000006bffffffffffffffffffffffff165a88610d1a91906151bb565b610d2491906151ef565b7f00000000000000000000000000000000000000000000000000000000000000006bffffffffffffffffffffffff16610d5d9190615231565b905081610da6577f000000000000000000000000000000000000000000000000000000000000000081670de0b6b3a7640000610d9991906151ef565b610da39190615294565b90505b6000819050610dba81848960000151613588565b601060008c81526020019081526020016000206000808201600090556001820160006101000a81549063ffffffff02191690556001820160046101000a81549063ffffffff0219169055600282016000610e14919061449a565b505086600001518b7faeb4b4786571e184246d39587f659abf0e26f41f6a3358692250382c0cdb47b78d8487896000604051610e549594939291906152c5565b60405180910390a35050505050505050505050565b81610e73816137cb565b610e7b613883565b600080610e87856138cf565b9150915060008473ffffffffffffffffffffffffffffffffffffffff16826bffffffffffffffffffffffff16604051610ebf9061533e565b60006040518083038185875af1925050503d8060008114610efc576040519150601f19603f3d011682016040523d82523d6000602084013e610f01565b606091505b5050905080610f3c576040517f950b247900000000000000000000000000000000000000000000000000000000815260040160405180910390fd5b857f8c74ce8b8cf87f5eb001275c8be27eb34ea2b62bfab6814fcc62192bb63e81c4868585604051610f7093929190615384565b60405180910390a2505050505050565b600073ffffffffffffffffffffffffffffffffffffffff166005600084815260200190815260200160002060000160009054906101000a900473ffffffffffffffffffffffffffffffffffffffff1673ffffffffffffffffffffffffffffffffffffffff160361101c576040517f1f6a65b600000000000000000000000000000000000000000000000000000000815260040160405180910390fd5b60006006600084815260200190815260200160002060000160009054906101000a90046bffffffffffffffffffffffff166bffffffffffffffffffffffff169050816006600085815260200190815260200160002060000160008282829054906101000a90046bffffffffffffffffffffffff1661109a91906153bb565b92506101000a8154816bffffffffffffffffffffffff02191690836bffffffffffffffffffffffff16021790555081600a60008282829054906101000a90046bffffffffffffffffffffffff166110f191906153bb565b92506101000a8154816bffffffffffffffffffffffff02191690836bffffffffffffffffffffffff160217905550827f1ced9348ff549fceab2ac57cd3a9de38edaaab274b725ee82c23e8fc8c4eec7a82848461114e9190615231565b60405161115c929190615034565b60405180910390a2505050565b7f000000000000000000000000000000000000000000000000000000000000000081565b600a600c9054906101000a90046bffffffffffffffffffffffff1681565b600260009054906101000a900473ffffffffffffffffffffffffffffffffffffffff1681565b7f000000000000000000000000000000000000000000000000000000000000000081565b6111fd613883565b611205613c29565b6000600b600c9054906101000a90046bffffffffffffffffffffffff16905061123e6000826bffffffffffffffffffffffff1611613cb9565b6000600b600c6101000a8154816bffffffffffffffffffffffff02191690836bffffffffffffffffffffffff16021790555080600a600c8282829054906101000a90046bffffffffffffffffffffffff1661129991906153fb565b92506101000a8154816bffffffffffffffffffffffff02191690836bffffffffffffffffffffffff1602179055506112df82826bffffffffffffffffffffffff16613cf3565b5050565b60006040517fd623472500000000000000000000000000000000000000000000000000000000815260040160405180910390fd5b61131f613883565b611327613c29565b600073ffffffffffffffffffffffffffffffffffffffff16600260009054906101000a900473ffffffffffffffffffffffffffffffffffffffff1673ffffffffffffffffffffffffffffffffffffffff16036113af576040517fc1f0c0a100000000000000000000000000000000000000000000000000000000815260040160405180910390fd5b6000600b60009054906101000a90046bffffffffffffffffffffffff1690506113e86000826bffffffffffffffffffffffff1611613cb9565b6000600b60006101000a8154816bffffffffffffffffffffffff02191690836bffffffffffffffffffffffff16021790555080600a60008282829054906101000a90046bffffffffffffffffffffffff1661144391906153fb565b92506101000a8154816bffffffffffffffffffffffff02191690836bffffffffffffffffffffffff160217905550611519600260009054906101000a900473ffffffffffffffffffffffffffffffffffffffff1673ffffffffffffffffffffffffffffffffffffffff1663a9059cbb84846040518363ffffffff1660e01b81526004016114d192919061543b565b6020604051808303816000875af11580156114f0573d6000803e3d6000fd5b505050506040513d601f19601f820116820180604052508101906115149190615490565b613cb9565b5050565b606481565b61152a613c29565b600073ffffffffffffffffffffffffffffffffffffffff16600260009054906101000a900473ffffffffffffffffffffffffffffffffffffffff1673ffffffffffffffffffffffffffffffffffffffff16146115b2576040517f2d118a6e00000000000000000000000000000000000000000000000000000000815260040160405180910390fd5b81600260006101000a81548173ffffffffffffffffffffffffffffffffffffffff021916908373ffffffffffffffffffffffffffffffffffffffff16021790555080600360006101000a81548173ffffffffffffffffffffffffffffffffffffffff021916908373ffffffffffffffffffffffffffffffffffffffff1602179055505050565b600360009054906101000a900473ffffffffffffffffffffffffffffffffffffffff1681565b600160009054906101000a900473ffffffffffffffffffffffffffffffffffffffff1673ffffffffffffffffffffffffffffffffffffffff163373ffffffffffffffffffffffffffffffffffffffff16146116ee576040517f08c379a00000000000000000000000000000000000000000000000000000000081526004016116e59061551a565b60405180910390fd5b60008060009054906101000a900473ffffffffffffffffffffffffffffffffffffffff169050336000806101000a81548173ffffffffffffffffffffffffffffffffffffffff021916908373ffffffffffffffffffffffffffffffffffffffff1602179055506000600160006101000a81548173ffffffffffffffffffffffffffffffffffffffff021916908373ffffffffffffffffffffffffffffffffffffffff1602179055503373ffffffffffffffffffffffffffffffffffffffff168173ffffffffffffffffffffffffffffffffffffffff167f8be0079c531659141344cd1fd0a4f28419497f9722a3daafe3b4186f6b6457e060405160405180910390a350565b6117fb613883565b61184f8282600067ffffffffffffffff81111561181b5761181a614775565b5b6040519080825280602002602001820160405280156118495781602001602082028036833780820191505090505b506108f0565b5050565b61185b613c29565b60004790506000600a600c9054906101000a90046bffffffffffffffffffffffff166bffffffffffffffffffffffff169050818111156118d45780826040517fa99da3020000000000000000000000000000000000000000000000000000000081526004016118cb929190615034565b60405180910390fd5b818110156119cb57600081836118ea91906151bb565b905060008473ffffffffffffffffffffffffffffffffffffffff16826040516119129061533e565b60006040518083038185875af1925050503d806000811461194f576040519150601f19603f3d011682016040523d82523d6000602084013e611954565b606091505b505090508061198f576040517f950b247900000000000000000000000000000000000000000000000000000000815260040160405180910390fd5b7f4aed7c8eed0496c8c19ea2681fcca25741c1602342e38b045d9f1e8e905d2e9c85836040516119c092919061555b565b60405180910390a150505b505050565b600a60009054906101000a90046bffffffffffffffffffffffff1681565b6119f6613c29565b604051806101200160405280600061ffff168152602001600063ffffffff168152602001600015158152602001600063ffffffff168152602001600063ffffffff168152602001600063ffffffff168152602001600063ffffffff168152602001600060ff168152602001600060ff16815250600c60008201518160000160006101000a81548161ffff021916908361ffff16021790555060208201518160000160026101000a81548163ffffffff021916908363ffffffff16021790555060408201518160000160066101000a81548160ff02191690831515021790555060608201518160000160076101000a81548163ffffffff021916908363ffffffff160217905550608082015181600001600b6101000a81548163ffffffff021916908363ffffffff16021790555060a082015181600001600f6101000a81548163ffffffff021916908363ffffffff16021790555060c08201518160000160136101000a81548163ffffffff021916908363ffffffff16021790555060e08201518160000160176101000a81548160ff021916908360ff1602179055506101008201518160000160186101000a81548160ff021916908360ff1602179055509050507f4b2974a542484cba2783812ff8033f7fc682cac2fe0905c28c5e27869b3155be60405160405180910390a1565b60008060009054906101000a900473ffffffffffffffffffffffffffffffffffffffff16905090565b6000600460008373ffffffffffffffffffffffffffffffffffffffff1673ffffffffffffffffffffffffffffffffffffffff168152602001908152602001600020600084815260200190815260200160002060000160009054906101000a900460ff16905092915050565b611c81613883565b611cc06005600083815260200190815260200160002060000160009054906101000a900473ffffffffffffffffffffffffffffffffffffffff16613d9b565b600060066000838152602001908152602001600020600001600c9054906101000a90046bffffffffffffffffffffffff166bffffffffffffffffffffffff1690503460066000848152602001908152602001600020600001600c8282829054906101000a90046bffffffffffffffffffffffff16611d3e91906153bb565b92506101000a8154816bffffffffffffffffffffffff02191690836bffffffffffffffffffffffff16021790555034600a600c8282829054906101000a90046bffffffffffffffffffffffff16611d9591906153bb565b92506101000a8154816bffffffffffffffffffffffff02191690836bffffffffffffffffffffffff160217905550817f7603b205d03651ee812f803fccde89f1012e545a9c99f0abfea9cedd0fd8e902823484611df29190615231565b604051611e00929190615034565b60405180910390a25050565b6000611e16613883565b816020013533611e268282611c0e565b611e695781816040517f79bfd401000000000000000000000000000000000000000000000000000000008152600401611e60929190615584565b60405180910390fd5b600084602001359050600073ffffffffffffffffffffffffffffffffffffffff166005600083815260200190815260200160002060000160009054906101000a900473ffffffffffffffffffffffffffffffffffffffff1673ffffffffffffffffffffffffffffffffffffffff1603611f0e576040517f1f6a65b600000000000000000000000000000000000000000000000000000000815260040160405180910390fd5b6000600e6000815480929190611f23906150bb565b9190505590506000600f6000815480929190611f3e906150bb565b9190505590506000611f66611f61898060a00190611f5c91906155bc565b613e04565b613efc565b9050604051806080016040528089602001358152602001896060016020810190611f90919061564b565b63ffffffff168152602001896080016020810190611fae919061564b565b63ffffffff168152602001898060a00190611fc991906155bc565b8080601f016020809104026020016040519081016040528093929190818152602001838380828437600081840152601f19601f82011690508083019250505050505050815250601060008581526020019081526020016000206000820151816000015560208201518160010160006101000a81548163ffffffff021916908363ffffffff16021790555060408201518160010160046101000a81548163ffffffff021916908363ffffffff160217905550606082015181600201908161208f919061581a565b509050503373ffffffffffffffffffffffffffffffffffffffff16886020013589600001357feb0e3652e0f44f417695e6e90f2f42c99b65cd7169074c5a654b16b9748c3a4e86868d60400160208101906120ea9190615918565b8e60600160208101906120fd919061564b565b8f6080016020810190612110919061564b565b896040516121239695949392919061598f565b60405180910390a4829650505050505050919050565b600760009054906101000a900467ffffffffffffffff1681565b600061215d613883565b6000600760009054906101000a900467ffffffffffffffff1690503360014361218691906151bb565b40308360405160200161219c9493929190615aa0565b6040516020818303038152906040528051906020012060001c91506001816121c49190615aee565b600760006101000a81548167ffffffffffffffff021916908367ffffffffffffffff16021790555060008067ffffffffffffffff81111561220857612207614775565b5b6040519080825280602002602001820160405280156122365781602001602082028036833780820191505090505b509050604051806060016040528060006bffffffffffffffffffffffff16815260200160006bffffffffffffffffffffffff168152602001600067ffffffffffffffff168152506006600085815260200190815260200160002060008201518160000160006101000a8154816bffffffffffffffffffffffff02191690836bffffffffffffffffffffffff160217905550602082015181600001600c6101000a8154816bffffffffffffffffffffffff02191690836bffffffffffffffffffffffff16021790555060408201518160000160186101000a81548167ffffffffffffffff021916908367ffffffffffffffff16021790555090505060405180606001604052803373ffffffffffffffffffffffffffffffffffffffff168152602001600073ffffffffffffffffffffffffffffffffffffffff168152602001828152506005600085815260200190815260200160002060008201518160000160006101000a81548173ffffffffffffffffffffffffffffffffffffffff021916908373ffffffffffffffffffffffffffffffffffffffff16021790555060208201518160010160006101000a81548173ffffffffffffffffffffffffffffffffffffffff021916908373ffffffffffffffffffffffffffffffffffffffff16021790555060408201518160020190805190602001906124359291906144da565b5090505061244d836008613f9490919063ffffffff16565b50827f1d3015d7ba850fa198dc7b1a3f5d42779313a681035f77c8c03764c61005518d3360405161247e9190614c1d565b60405180910390a2505090565b612493613883565b600260009054906101000a900473ffffffffffffffffffffffffffffffffffffffff1673ffffffffffffffffffffffffffffffffffffffff163373ffffffffffffffffffffffffffffffffffffffff161461251a576040517f44b0e3c300000000000000000000000000000000000000000000000000000000815260040160405180910390fd5b60208282905014612557576040517f8129bbcd00000000000000000000000000000000000000000000000000000000815260040160405180910390fd5b600082828101906125689190614b02565b90506125a96005600083815260200190815260200160002060000160009054906101000a900473ffffffffffffffffffffffffffffffffffffffff16613d9b565b60006006600083815260200190815260200160002060000160009054906101000a90046bffffffffffffffffffffffff166bffffffffffffffffffffffff169050846006600084815260200190815260200160002060000160008282829054906101000a90046bffffffffffffffffffffffff1661262791906153bb565b92506101000a8154816bffffffffffffffffffffffff02191690836bffffffffffffffffffffffff16021790555084600a60008282829054906101000a90046bffffffffffffffffffffffff1661267e91906153bb565b92506101000a8154816bffffffffffffffffffffffff02191690836bffffffffffffffffffffffff160217905550817f1ced9348ff549fceab2ac57cd3a9de38edaaab274b725ee82c23e8fc8c4eec7a8287846126db9190615231565b6040516126e9929190615034565b60405180910390a2505050505050565b612701613c29565b60006005600083815260200190815260200160002060000160009054906101000a900473ffffffffffffffffffffffffffffffffffffffff16905061274581613d9b565b61274f8282613fae565b5050565b606060006127616008614142565b905080841061279c576040517f1390f2a100000000000000000000000000000000000000000000000000000000815260040160405180910390fd5b600083856127aa9190615231565b9050818111806127ba5750600084145b6127c457806127c6565b815b9050600085826127d691906151bb565b90508067ffffffffffffffff8111156127f2576127f1614775565b5b6040519080825280602002602001820160405280156128205781602001602082028036833780820191505090505b50935060005b8181101561287d5761284d878261283d9190615231565b600861415790919063ffffffff16565b8582815181106128605761285f61505d565b5b60200260200101818152505080612876906150bb565b9050612826565b5050505092915050565b61288f613883565b60006005600083815260200190815260200160002060000160009054906101000a900473ffffffffffffffffffffffffffffffffffffffff1690506128d381613d9b565b3373ffffffffffffffffffffffffffffffffffffffff166005600084815260200190815260200160002060010160009054906101000a900473ffffffffffffffffffffffffffffffffffffffff1673ffffffffffffffffffffffffffffffffffffffff16146129af576005600083815260200190815260200160002060010160009054906101000a900473ffffffffffffffffffffffffffffffffffffffff166040517fd084e9750000000000000000000000000000000000000000000000000000000081526004016129a69190614c1d565b60405180910390fd5b336005600084815260200190815260200160002060000160006101000a81548173ffffffffffffffffffffffffffffffffffffffff021916908373ffffffffffffffffffffffffffffffffffffffff16021790555060006005600084815260200190815260200160002060010160006101000a81548173ffffffffffffffffffffffffffffffffffffffff021916908373ffffffffffffffffffffffffffffffffffffffff160217905550817fd4114ab6e9af9f597c52041f32d62dc57c5c4e4c0d4427006069635e216c93868233604051612a8c929190615b2a565b60405180910390a25050565b81612aa2816137cb565b612aaa613883565b6000600460008473ffffffffffffffffffffffffffffffffffffffff1673ffffffffffffffffffffffffffffffffffffffff168152602001908152602001600020600085815260200190815260200160002090508060000160009054906101000a900460ff1615612b1b5750612c31565b6000600560008681526020019081526020016000206002019050606461ffff16818054905003612b77576040517f05a48e0f00000000000000000000000000000000000000000000000000000000815260040160405180910390fd5b60018260000160006101000a81548160ff02191690831515021790555080849080600181540180825580915050600190039060005260206000200160009091909190916101000a81548173ffffffffffffffffffffffffffffffffffffffff021916908373ffffffffffffffffffffffffffffffffffffffff160217905550847f1e980d04aa7648e205713e5e8ea3808672ac163d10936d36f91b2c88ac1575e185604051612c269190614c1d565b60405180910390a250505b505050565b81612c40816137cb565b8282612c4c8282611c0e565b612c8f5781816040517f79bfd401000000000000000000000000000000000000000000000000000000008152600401612c86929190615584565b60405180910390fd5b612c97613883565b600460008573ffffffffffffffffffffffffffffffffffffffff1673ffffffffffffffffffffffffffffffffffffffff168152602001908152602001600020600086815260200190815260200160002060000160009054906101000a900460ff16612d3b5784846040517f79bfd401000000000000000000000000000000000000000000000000000000008152600401612d32929190615584565b60405180910390fd5b600060056000878152602001908152602001600020600201805480602002602001604051908101604052809291908181526020018280548015612dd357602002820191906000526020600020905b8160009054906101000a900473ffffffffffffffffffffffffffffffffffffffff1673ffffffffffffffffffffffffffffffffffffffff1681526020019060010190808311612d89575b50505050509050600060018251612dea91906151bb565b905060005b8251811015612f47578673ffffffffffffffffffffffffffffffffffffffff16838281518110612e2257612e2161505d565b5b602002602001015173ffffffffffffffffffffffffffffffffffffffff1603612f36576000838381518110612e5a57612e5961505d565b5b6020026020010151905080600560008b81526020019081526020016000206002018381548110612e8d57612e8c61505d565b5b9060005260206000200160006101000a81548173ffffffffffffffffffffffffffffffffffffffff021916908373ffffffffffffffffffffffffffffffffffffffff160217905550600560008a8152602001908152602001600020600201805480612efb57612efa615b53565b5b6001900381819060005260206000200160006101000a81549073ffffffffffffffffffffffffffffffffffffffff0219169055905550612f47565b80612f40906150bb565b9050612def565b506000600460008873ffffffffffffffffffffffffffffffffffffffff1673ffffffffffffffffffffffffffffffffffffffff168152602001908152602001600020600089815260200190815260200160002060000160006101000a81548160ff021916908315150217905550867f32158c6058347c1601b2d12bc696ac6901d8a9a9aa3ba10c27ab0a983e8425a787604051612fe49190614c1d565b60405180910390a250505050505050565b81612fff816137cb565b613007613883565b60006005600085815260200190815260200160002090508273ffffffffffffffffffffffffffffffffffffffff168160010160009054906101000a900473ffffffffffffffffffffffffffffffffffffffff1673ffffffffffffffffffffffffffffffffffffffff16146130f357828160010160006101000a81548173ffffffffffffffffffffffffffffffffffffffff021916908373ffffffffffffffffffffffffffffffffffffffff160217905550837f21a4dad170a6bf476c31bbcf4a16628295b0e450672eec25d7c93308e05344a133856040516130ea929190615b2a565b60405180910390a25b50505050565b60008060008060606005600087815260200190815260200160002060000160009054906101000a900473ffffffffffffffffffffffffffffffffffffffff16915061314382613d9b565b6006600087815260200190815260200160002060000160009054906101000a90046bffffffffffffffffffffffff1660066000888152602001908152602001600020600001600c9054906101000a90046bffffffffffffffffffffffff166006600089815260200190815260200160002060000160189054906101000a900467ffffffffffffffff1684600560008b81526020019081526020016000206002018080548060200260200160405190810160405280929190818152602001828054801561326457602002820191906000526020600020905b8160009054906101000a900473ffffffffffffffffffffffffffffffffffffffff1673ffffffffffffffffffffffffffffffffffffffff168152602001906001019080831161321a575b505050505090509450945094509450945091939590929450565b7f000000000000000000000000000000000000000000000000000000000000000081565b6132aa613c29565b600073ffffffffffffffffffffffffffffffffffffffff16600260009054906101000a900473ffffffffffffffffffffffffffffffffffffffff1673ffffffffffffffffffffffffffffffffffffffff1603613332576040517fc1f0c0a100000000000000000000000000000000000000000000000000000000815260040160405180910390fd5b6000600260009054906101000a900473ffffffffffffffffffffffffffffffffffffffff1673ffffffffffffffffffffffffffffffffffffffff166370a08231306040518263ffffffff1660e01b815260040161338f9190614c1d565b602060405180830381865afa1580156133ac573d6000803e3d6000fd5b505050506040513d601f19601f820116820180604052508101906133d09190615b97565b90506000600a60009054906101000a90046bffffffffffffffffffffffff166bffffffffffffffffffffffff169050818111156134465780826040517fa99da30200000000000000000000000000000000000000000000000000000000815260040161343d929190615034565b60405180910390fd5b8181101561356f576000818361345c91906151bb565b9050600260009054906101000a900473ffffffffffffffffffffffffffffffffffffffff1673ffffffffffffffffffffffffffffffffffffffff1663a9059cbb85836040518363ffffffff1660e01b81526004016134bb929190615bc4565b6020604051808303816000875af11580156134da573d6000803e3d6000fd5b505050506040513d601f19601f820116820180604052508101906134fe9190615490565b613534576040517f7c07fc4c00000000000000000000000000000000000000000000000000000000815260040160405180910390fd5b7f59bfc682b673f8cbf945f1e454df9334834abf7dfe7f92237ca29ecb9b4366008482604051613565929190615bc4565b60405180910390a1505b505050565b61357c613c29565b61358581614171565b50565b600060066000838152602001908152602001600020905082156136b757600081600001600c9054906101000a90046bffffffffffffffffffffffff169050846bffffffffffffffffffffffff16816bffffffffffffffffffffffff16101561361c576040517ff4d678b800000000000000000000000000000000000000000000000000000000815260040160405180910390fd5b848161362891906153fb565b82600001600c6101000a8154816bffffffffffffffffffffffff02191690836bffffffffffffffffffffffff16021790555084600b600c8282829054906101000a90046bffffffffffffffffffffffff1661368391906153bb565b92506101000a8154816bffffffffffffffffffffffff02191690836bffffffffffffffffffffffff160217905550506137c5565b60008160000160009054906101000a90046bffffffffffffffffffffffff169050846bffffffffffffffffffffffff16816bffffffffffffffffffffffff16101561372e576040517ff4d678b800000000000000000000000000000000000000000000000000000000815260040160405180910390fd5b848161373a91906153fb565b8260000160006101000a8154816bffffffffffffffffffffffff02191690836bffffffffffffffffffffffff16021790555084600b60008282829054906101000a90046bffffffffffffffffffffffff1661379591906153bb565b92506101000a8154816bffffffffffffffffffffffff02191690836bffffffffffffffffffffffff160217905550505b50505050565b60006005600083815260200190815260200160002060000160009054906101000a900473ffffffffffffffffffffffffffffffffffffffff16905061380f81613d9b565b8073ffffffffffffffffffffffffffffffffffffffff163373ffffffffffffffffffffffffffffffffffffffff161461387f57806040517fd8a3fb520000000000000000000000000000000000000000000000000000000081526004016138769190614c1d565b60405180910390fd5b5050565b600c60000160069054906101000a900460ff16156138cd576040517fed3ba6a600000000000000000000000000000000000000000000000000000000815260040160405180910390fd5b565b60008060006005600085815260200190815260200160002060020190506006600085815260200190815260200160002060000160009054906101000a90046bffffffffffffffffffffffff16925060066000858152602001908152602001600020600001600c9054906101000a90046bffffffffffffffffffffffff16915060008180549050905060005b81811015613a4d57600460008483815481106139795761397861505d565b5b9060005260206000200160009054906101000a900473ffffffffffffffffffffffffffffffffffffffff1673ffffffffffffffffffffffffffffffffffffffff1673ffffffffffffffffffffffffffffffffffffffff1681526020019081526020016000206000878152602001908152602001600020600080820160006101000a81549060ff02191690556000820160016101000a81549067ffffffffffffffff02191690556000820160096101000a81549067ffffffffffffffff0219169055505080613a46906150bb565b905061395a565b5060056000868152602001908152602001600020600080820160006101000a81549073ffffffffffffffffffffffffffffffffffffffff02191690556001820160006101000a81549073ffffffffffffffffffffffffffffffffffffffff0219169055600282016000613ac09190614564565b505060066000868152602001908152602001600020600080820160006101000a8154906bffffffffffffffffffffffff021916905560008201600c6101000a8154906bffffffffffffffffffffffff02191690556000820160186101000a81549067ffffffffffffffff02191690555050613b4585600861429d90919063ffffffff16565b506000846bffffffffffffffffffffffff1614613bb45783600a60008282829054906101000a90046bffffffffffffffffffffffff16613b8591906153fb565b92506101000a8154816bffffffffffffffffffffffff02191690836bffffffffffffffffffffffff1602179055505b6000836bffffffffffffffffffffffff1614613c225782600a600c8282829054906101000a90046bffffffffffffffffffffffff16613bf391906153fb565b92506101000a8154816bffffffffffffffffffffffff02191690836bffffffffffffffffffffffff1602179055505b5050915091565b60008054906101000a900473ffffffffffffffffffffffffffffffffffffffff1673ffffffffffffffffffffffffffffffffffffffff163373ffffffffffffffffffffffffffffffffffffffff1614613cb7576040517f08c379a0000000000000000000000000000000000000000000000000000000008152600401613cae90615c39565b60405180910390fd5b565b80613cf0576040517ff4d678b800000000000000000000000000000000000000000000000000000000815260040160405180910390fd5b50565b60008273ffffffffffffffffffffffffffffffffffffffff1682604051613d199061533e565b60006040518083038185875af1925050503d8060008114613d56576040519150601f19603f3d011682016040523d82523d6000602084013e613d5b565b606091505b5050905080613d96576040517f950b247900000000000000000000000000000000000000000000000000000000815260040160405180910390fd5b505050565b600073ffffffffffffffffffffffffffffffffffffffff168173ffffffffffffffffffffffffffffffffffffffff1603613e01576040517f1f6a65b600000000000000000000000000000000000000000000000000000000815260040160405180910390fd5b50565b613e0c614585565b60008383905003613e30576040518060200160405280600015158152509050613ef6565b7f92fd13387c7fe7befbc38d303d6468778fb9731bc4583f17d92989c6fcfdeaaa7bffffffffffffffffffffffffffffffffffffffffffffffffffffffff1916838390613e7d9190615c90565b7bffffffffffffffffffffffffffffffffffffffffffffffffffffffff191614613ed3576040517f5247fdce00000000000000000000000000000000000000000000000000000000815260040160405180910390fd5b82826004908092613ee693929190615cf9565b810190613ef39190615d8a565b90505b92915050565b60607f92fd13387c7fe7befbc38d303d6468778fb9731bc4583f17d92989c6fcfdeaaa82604051602401613f309190615de2565b604051602081830303815290604052907bffffffffffffffffffffffffffffffffffffffffffffffffffffffff19166020820180517bffffffffffffffffffffffffffffffffffffffffffffffffffffffff83818316178352505050509050919050565b6000613fa6836000018360001b6142b7565b905092915050565b600080613fba846138cf565b91509150600073ffffffffffffffffffffffffffffffffffffffff16600260009054906101000a900473ffffffffffffffffffffffffffffffffffffffff1673ffffffffffffffffffffffffffffffffffffffff161415801561402c57506000826bffffffffffffffffffffffff1614155b156140e8576140e7600260009054906101000a900473ffffffffffffffffffffffffffffffffffffffff1673ffffffffffffffffffffffffffffffffffffffff1663a9059cbb85856bffffffffffffffffffffffff166040518363ffffffff1660e01b815260040161409f929190615bc4565b6020604051808303816000875af11580156140be573d6000803e3d6000fd5b505050506040513d601f19601f820116820180604052508101906140e29190615490565b613cb9565b5b61410083826bffffffffffffffffffffffff16613cf3565b837f8c74ce8b8cf87f5eb001275c8be27eb34ea2b62bfab6814fcc62192bb63e81c484848460405161413493929190615384565b60405180910390a250505050565b600061415082600001614327565b9050919050565b60006141668360000183614338565b60001c905092915050565b3373ffffffffffffffffffffffffffffffffffffffff168173ffffffffffffffffffffffffffffffffffffffff16036141df576040517f08c379a00000000000000000000000000000000000000000000000000000000081526004016141d690615e49565b60405180910390fd5b80600160006101000a81548173ffffffffffffffffffffffffffffffffffffffff021916908373ffffffffffffffffffffffffffffffffffffffff1602179055508073ffffffffffffffffffffffffffffffffffffffff1660008054906101000a900473ffffffffffffffffffffffffffffffffffffffff1673ffffffffffffffffffffffffffffffffffffffff167fed8889f560326eb138920d842192f0eb3dd22b4f139c87a2c57538e05bae127860405160405180910390a350565b60006142af836000018360001b614363565b905092915050565b60006142c38383614477565b61431c578260000182908060018154018082558091505060019003906000526020600020016000909190919091505582600001805490508360010160008481526020019081526020016000208190555060019050614321565b600090505b92915050565b600081600001805490509050919050565b60008260000182815481106143505761434f61505d565b5b9060005260206000200154905092915050565b6000808360010160008481526020019081526020016000205490506000811461446b57600060018261439591906151bb565b90506000600186600001805490506143ad91906151bb565b905081811461441c5760008660000182815481106143ce576143cd61505d565b5b90600052602060002001549050808760000184815481106143f2576143f161505d565b5b90600052602060002001819055508387600101600083815260200190815260200160002081905550505b856000018054806144305761442f615b53565b5b600190038181906000526020600020016000905590558560010160008681526020019081526020016000206000905560019350505050614471565b60009150505b92915050565b600080836001016000848152602001908152602001600020541415905092915050565b5080546144a690615003565b6000825580601f106144b857506144d7565b601f0160209004906000526020600020908101906144d6919061459a565b5b50565b828054828255906000526020600020908101928215614553579160200282015b828111156145525782518260006101000a81548173ffffffffffffffffffffffffffffffffffffffff021916908373ffffffffffffffffffffffffffffffffffffffff160217905550916020019190600101906144fa565b5b509050614560919061459a565b5090565b5080546000825590600052602060002090810190614582919061459a565b50565b60405180602001604052806000151581525090565b5b808211156145b357600081600090555060010161459b565b5090565b600061ffff82169050919050565b6145ce816145b7565b82525050565b600063ffffffff82169050919050565b6145ed816145d4565b82525050565b60008115159050919050565b614608816145f3565b82525050565b600060ff82169050919050565b6146248161460e565b82525050565b600061012082019050614640600083018c6145c5565b61464d602083018b6145e4565b61465a604083018a6145ff565b61466760608301896145e4565b61467460808301886145e4565b61468160a08301876145e4565b61468e60c08301866145e4565b61469b60e083018561461b565b6146a961010083018461461b565b9a9950505050505050505050565b6000604051905090565b600080fd5b600080fd5b6000819050919050565b6146de816146cb565b81146146e957600080fd5b50565b6000813590506146fb816146d5565b92915050565b600073ffffffffffffffffffffffffffffffffffffffff82169050919050565b600061472c82614701565b9050919050565b61473c81614721565b811461474757600080fd5b50565b60008135905061475981614733565b92915050565b600080fd5b6000601f19601f8301169050919050565b7f4e487b7100000000000000000000000000000000000000000000000000000000600052604160045260246000fd5b6147ad82614764565b810181811067ffffffffffffffff821117156147cc576147cb614775565b5b80604052505050565b60006147df6146b7565b90506147eb82826147a4565b919050565b600067ffffffffffffffff82111561480b5761480a614775565b5b602082029050602081019050919050565b600080fd5b600061483461482f846147f0565b6147d5565b905080838252602082019050602084028301858111156148575761485661481c565b5b835b81811015614880578061486c88826146ec565b845260208401935050602081019050614859565b5050509392505050565b600082601f83011261489f5761489e61475f565b5b81356148af848260208601614821565b91505092915050565b6000806000606084860312156148d1576148d06146c1565b5b60006148df868287016146ec565b93505060206148f08682870161474a565b925050604084013567ffffffffffffffff811115614911576149106146c6565b5b61491d8682870161488a565b9150509250925092565b6000806040838503121561493e5761493d6146c1565b5b600061494c858286016146ec565b925050602061495d8582860161474a565b9150509250929050565b6000806040838503121561497e5761497d6146c1565b5b600061498c858286016146ec565b925050602061499d858286016146ec565b9150509250929050565b6000819050919050565b6149ba816149a7565b82525050565b60006020820190506149d560008301846149b1565b92915050565b60006bffffffffffffffffffffffff82169050919050565b6149fc816149db565b82525050565b6000602082019050614a1760008301846149f3565b92915050565b6000819050919050565b6000614a42614a3d614a3884614701565b614a1d565b614701565b9050919050565b6000614a5482614a27565b9050919050565b6000614a6682614a49565b9050919050565b614a7681614a5b565b82525050565b6000602082019050614a916000830184614a6d565b92915050565b6000614aa282614701565b9050919050565b614ab281614a97565b8114614abd57600080fd5b50565b600081359050614acf81614aa9565b92915050565b600060208284031215614aeb57614aea6146c1565b5b6000614af984828501614ac0565b91505092915050565b600060208284031215614b1857614b176146c1565b5b6000614b26848285016146ec565b91505092915050565b6000602082019050614b4460008301846145ff565b92915050565b600060208284031215614b6057614b5f6146c1565b5b6000614b6e8482850161474a565b91505092915050565b6000602082019050614b8c60008301846145c5565b92915050565b60008060408385031215614ba957614ba86146c1565b5b6000614bb78582860161474a565b9250506020614bc88582860161474a565b9150509250929050565b6000614bdd82614a49565b9050919050565b614bed81614bd2565b82525050565b6000602082019050614c086000830184614be4565b92915050565b614c1781614721565b82525050565b6000602082019050614c326000830184614c0e565b92915050565b600080fd5b600060c08284031215614c5357614c52614c38565b5b81905092915050565b600060208284031215614c7257614c716146c1565b5b600082013567ffffffffffffffff811115614c9057614c8f6146c6565b5b614c9c84828501614c3d565b91505092915050565b614cae816146cb565b82525050565b6000602082019050614cc96000830184614ca5565b92915050565b600067ffffffffffffffff82169050919050565b614cec81614ccf565b82525050565b6000602082019050614d076000830184614ce3565b92915050565b600080fd5b60008083601f840112614d2857614d2761475f565b5b8235905067ffffffffffffffff811115614d4557614d44614d0d565b5b602083019150836001820283011115614d6157614d6061481c565b5b9250929050565b60008060008060608587031215614d8257614d816146c1565b5b6000614d908782880161474a565b9450506020614da1878288016146ec565b935050604085013567ffffffffffffffff811115614dc257614dc16146c6565b5b614dce87828801614d12565b925092505092959194509250565b600081519050919050565b600082825260208201905092915050565b6000819050602082019050919050565b614e11816146cb565b82525050565b6000614e238383614e08565b60208301905092915050565b6000602082019050919050565b6000614e4782614ddc565b614e518185614de7565b9350614e5c83614df8565b8060005b83811015614e8d578151614e748882614e17565b9750614e7f83614e2f565b925050600181019050614e60565b5085935050505092915050565b60006020820190508181036000830152614eb48184614e3c565b905092915050565b600081519050919050565b600082825260208201905092915050565b6000819050602082019050919050565b614ef181614721565b82525050565b6000614f038383614ee8565b60208301905092915050565b6000602082019050919050565b6000614f2782614ebc565b614f318185614ec7565b9350614f3c83614ed8565b8060005b83811015614f6d578151614f548882614ef7565b9750614f5f83614f0f565b925050600181019050614f40565b5085935050505092915050565b600060a082019050614f8f60008301886149f3565b614f9c60208301876149f3565b614fa96040830186614ce3565b614fb66060830185614c0e565b8181036080830152614fc88184614f1c565b90509695505050505050565b7f4e487b7100000000000000000000000000000000000000000000000000000000600052602260045260246000fd5b6000600282049050600182168061501b57607f821691505b60208210810361502e5761502d614fd4565b5b50919050565b60006040820190506150496000830185614ca5565b6150566020830184614ca5565b9392505050565b7f4e487b7100000000000000000000000000000000000000000000000000000000600052603260045260246000fd5b7f4e487b7100000000000000000000000000000000000000000000000000000000600052601160045260246000fd5b60006150c6826146cb565b91507fffffffffffffffffffffffffffffffffffffffffffffffffffffffffffffffff82036150f8576150f761508c565b5b600182019050919050565b60006040820190506151186000830185614ca5565b818103602083015261512a8184614e3c565b90509392505050565b600081519050919050565b600081905092915050565b60005b8381101561516757808201518184015260208101905061514c565b60008484015250505050565b600061517e82615133565b615188818561513e565b9350615198818560208601615149565b80840191505092915050565b60006151b08284615173565b915081905092915050565b60006151c6826146cb565b91506151d1836146cb565b92508282039050818111156151e9576151e861508c565b5b92915050565b60006151fa826146cb565b9150615205836146cb565b9250828202615213816146cb565b9150828204841483151761522a5761522961508c565b5b5092915050565b600061523c826146cb565b9150615247836146cb565b925082820190508082111561525f5761525e61508c565b5b92915050565b7f4e487b7100000000000000000000000000000000000000000000000000000000600052601260045260246000fd5b600061529f826146cb565b91506152aa836146cb565b9250826152ba576152b9615265565b5b828204905092915050565b600060a0820190506152da6000830188614ca5565b6152e760208301876149f3565b6152f460408301866145ff565b61530160608301856145ff565b61530e60808301846145ff565b9695505050505050565b50565b600061532860008361513e565b915061533382615318565b600082019050919050565b60006153498261531b565b9150819050919050565b600061536e615369615364846149db565b614a1d565b6146cb565b9050919050565b61537e81615353565b82525050565b60006060820190506153996000830186614c0e565b6153a66020830185615375565b6153b36040830184615375565b949350505050565b60006153c6826149db565b91506153d1836149db565b925082820190506bffffffffffffffffffffffff8111156153f5576153f461508c565b5b92915050565b6000615406826149db565b9150615411836149db565b925082820390506bffffffffffffffffffffffff8111156154355761543461508c565b5b92915050565b60006040820190506154506000830185614c0e565b61545d6020830184615375565b9392505050565b61546d816145f3565b811461547857600080fd5b50565b60008151905061548a81615464565b92915050565b6000602082840312156154a6576154a56146c1565b5b60006154b48482850161547b565b91505092915050565b600082825260208201905092915050565b7f4d7573742062652070726f706f736564206f776e657200000000000000000000600082015250565b60006155046016836154bd565b915061550f826154ce565b602082019050919050565b60006020820190508181036000830152615533816154f7565b9050919050565b600061554582614a49565b9050919050565b6155558161553a565b82525050565b6000604082019050615570600083018561554c565b61557d6020830184614ca5565b9392505050565b60006040820190506155996000830185614ca5565b6155a66020830184614c0e565b9392505050565b600080fd5b600080fd5b600080fd5b600080833560016020038436030381126155d9576155d86155ad565b5b80840192508235915067ffffffffffffffff8211156155fb576155fa6155b2565b5b602083019250600182023603831315615617576156166155b7565b5b509250929050565b615628816145d4565b811461563357600080fd5b50565b6000813590506156458161561f565b92915050565b600060208284031215615661576156606146c1565b5b600061566f84828501615636565b91505092915050565b60008190508160005260206000209050919050565b60006020601f8301049050919050565b600082821b905092915050565b6000600883026156da7fffffffffffffffffffffffffffffffffffffffffffffffffffffffffffffffff8261569d565b6156e4868361569d565b95508019841693508086168417925050509392505050565b600061571761571261570d846146cb565b614a1d565b6146cb565b9050919050565b6000819050919050565b615731836156fc565b61574561573d8261571e565b8484546156aa565b825550505050565b600090565b61575a61574d565b615765818484615728565b505050565b5b818110156157895761577e600082615752565b60018101905061576b565b5050565b601f8211156157ce5761579f81615678565b6157a88461568d565b810160208510156157b7578190505b6157cb6157c38561568d565b83018261576a565b50505b505050565b600082821c905092915050565b60006157f1600019846008026157d3565b1980831691505092915050565b600061580a83836157e0565b9150826002028217905092915050565b61582382615133565b67ffffffffffffffff81111561583c5761583b614775565b5b6158468254615003565b61585182828561578d565b600060209050601f8311600181146158845760008415615872578287015190505b61587c85826157fe565b8655506158e4565b601f19841661589286615678565b60005b828110156158ba57848901518255600182019150602085019450602081019050615895565b868310156158d757848901516158d3601f8916826157e0565b8355505b6001600288020188555050505b505050505050565b6158f5816145b7565b811461590057600080fd5b50565b600081359050615912816158ec565b92915050565b60006020828403121561592e5761592d6146c1565b5b600061593c84828501615903565b91505092915050565b600082825260208201905092915050565b600061596182615133565b61596b8185615945565b935061597b818560208601615149565b61598481614764565b840191505092915050565b600060c0820190506159a46000830189614ca5565b6159b16020830188614ca5565b6159be60408301876145c5565b6159cb60608301866145e4565b6159d860808301856145e4565b81810360a08301526159ea8184615956565b9050979650505050505050565b60008160601b9050919050565b6000615a0f826159f7565b9050919050565b6000615a2182615a04565b9050919050565b615a39615a3482614721565b615a16565b82525050565b6000819050919050565b6000819050919050565b615a64615a5f82615a3f565b615a49565b82525050565b60008160c01b9050919050565b6000615a8282615a6a565b9050919050565b615a9a615a9582614ccf565b615a77565b82525050565b6000615aac8287615a28565b601482019150615abc8286615a53565b602082019150615acc8285615a28565b601482019150615adc8284615a89565b60088201915081905095945050505050565b6000615af982614ccf565b9150615b0483614ccf565b9250828201905067ffffffffffffffff811115615b2457615b2361508c565b5b92915050565b6000604082019050615b3f6000830185614c0e565b615b4c6020830184614c0e565b9392505050565b7f4e487b7100000000000000000000000000000000000000000000000000000000600052603160045260246000fd5b600081519050615b91816146d5565b92915050565b600060208284031215615bad57615bac6146c1565b5b6000615bbb84828501615b82565b91505092915050565b6000604082019050615bd96000830185614c0e565b615be66020830184614ca5565b9392505050565b7f4f6e6c792063616c6c61626c65206279206f776e657200000000000000000000600082015250565b6000615c236016836154bd565b9150615c2e82615bed565b602082019050919050565b60006020820190508181036000830152615c5281615c16565b9050919050565b600082905092915050565b60007fffffffff0000000000000000000000000000000000000000000000000000000082169050919050565b6000615c9c8383615c59565b82615ca78135615c64565b92506004821015615ce757615ce27fffffffff000000000000000000000000000000000000000000000000000000008360040360080261569d565b831692505b505092915050565b600080fd5b600080fd5b60008085851115615d0d57615d0c615cef565b5b83861115615d1e57615d1d615cf4565b5b6001850283019150848603905094509492505050565b600080fd5b600081359050615d4881615464565b92915050565b600060208284031215615d6457615d63615d34565b5b615d6e60206147d5565b90506000615d7e84828501615d39565b60008301525092915050565b600060208284031215615da057615d9f6146c1565b5b6000615dae84828501615d4e565b91505092915050565b615dc0816145f3565b82525050565b602082016000820151615ddc6000850182615db7565b50505050565b6000602082019050615df76000830184615dc6565b92915050565b7f43616e6e6f74207472616e7366657220746f2073656c66000000000000000000600082015250565b6000615e336017836154bd565b9150615e3e82615dfd565b602082019050919050565b60006020820190508181036000830152615e6281615e26565b905091905056fea2646970667358221220ae915b2d63584741899877a7d4d1beddcd0646e42da5abcc4d5ed890a32dc39164736f6c63430008130033",
  "linkReferences": {},
  "deployedLinkReferences": {}
}