{
  "address": "0xDc64a140Aa3E981100a9becA4E685f962f0cF6C9",
  "abi": [
    {
      "inputs": [
        {
          "internalType": "address",
          "name": "vrfCoordinatorV2_5",
          "type": "address"
        },
        {
          "internalType": "uint256",
          "name": "entranceFee",
          "type": "uint256"
        },
        {
          "internalType": "bytes32",
          "name": "keyHash",
          "type": "bytes32"
        },
        {
          "internalType": "uint256",
          "name": "subId",
          "type": "uint256"
        },
        {
          "internalType": "uint32",
          "name": "callbackGasLimit",
          "type": "uint32"
        },
        {
          "internalType": "uint256",
          "name": "interval",
          "type": "uint256"
        }
      ],
      "stateMutability": "nonpayable",
      "type": "constructor"
    },
    {
      "inputs": [
        {
          "internalType": "address",
          "name": "have",
          "type": "address"
        },
        {
          "internalType": "address",
          "name": "want",
          "type": "address"
        }
      ],
      "name": "OnlyCoordinatorCanFulfill",
      "type": "error"
    },
    {
      "inputs": [
        {
          "internalType": "address",
          "name": "have",
          "type": "address"
        },
        {
          "internalType": "address",
          "name": "owner",
          "type": "address"
        },
        {
          "internalType": "address",
          "name": "coordinator",
          "type": "address"
        }
      ],
      "name": "OnlyOwnerOrCoordinator",
      "type": "error"
    },
    {
      "inputs": [],
      "name": "Raffle__NOTOpen",
      "type": "error"
    },
    {
      "inputs": [],
      "name": "Raffle__NotEnoughETHEntered",
      "type": "error"
    },
    {
      "inputs": [],
      "name": "Raffle__TransferFailed",
      "type": "error"
    },
    {
      "inputs": [
        {
          "internalType": "uint256",
          "name": "currentBalance",
          "type": "uint256"
        },
        {
          "internalType": "uint256",
          "name": "numPlayers",
          "type": "uint256"
        },
        {
          "internalType": "uint256",
          "name": "raffleState",
          "type": "uint256"
        }
      ],
      "name": "Raffle__UpkeepNotNeeded",
      "type": "error"
    },
    {
      "inputs": [],
      "name": "ZeroAddress",
      "type": "error"
    },
    {
      "anonymous": false,
      "inputs": [
        {
          "indexed": false,
          "internalType": "address",
          "name": "vrfCoordinator",
          "type": "address"
        }
      ],
      "name": "CoordinatorSet",
      "type": "event"
    },
    {
      "anonymous": false,
      "inputs": [
        {
          "indexed": true,
          "internalType": "address",
          "name": "from",
          "type": "address"
        },
        {
          "indexed": true,
          "internalType": "address",
          "name": "to",
          "type": "address"
        }
      ],
      "name": "OwnershipTransferRequested",
      "type": "event"
    },
    {
      "anonymous": false,
      "inputs": [
        {
          "indexed": true,
          "internalType": "address",
          "name": "from",
          "type": "address"
        },
        {
          "indexed": true,
          "internalType": "address",
          "name": "to",
          "type": "address"
        }
      ],
      "name": "OwnershipTransferred",
      "type": "event"
    },
    {
      "anonymous": false,
      "inputs": [
        {
          "indexed": true,
          "internalType": "address",
          "name": "player",
          "type": "address"
        }
      ],
      "name": "RaffleEnter",
      "type": "event"
    },
    {
      "anonymous": false,
      "inputs": [
        {
          "indexed": true,
          "internalType": "uint256",
          "name": "requestId",
          "type": "uint256"
        }
      ],
      "name": "RequestedRaffleWinner",
      "type": "event"
    },
    {
      "anonymous": false,
      "inputs": [
        {
          "indexed": true,
          "internalType": "address",
          "name": "player",
          "type": "address"
        }
      ],
      "name": "WinnerPicked",
      "type": "event"
    },
    {
      "inputs": [],
      "name": "acceptOwnership",
      "outputs": [],
      "stateMutability": "nonpayable",
      "type": "function"
    },
    {
      "inputs": [
        {
          "internalType": "bytes",
          "name": "",
          "type": "bytes"
        }
      ],
      "name": "checkUpkeep",
      "outputs": [
        {
          "internalType": "bool",
          "name": "upkeepNeeded",
          "type": "bool"
        },
        {
          "internalType": "bytes",
          "name": "",
          "type": "bytes"
        }
      ],
      "stateMutability": "view",
      "type": "function"
    },
    {
      "inputs": [],
      "name": "enterRaffle",
      "outputs": [],
      "stateMutability": "payable",
      "type": "function"
    },
    {
      "inputs": [],
      "name": "getEntranceFee",
      "outputs": [
        {
          "internalType": "uint256",
          "name": "",
          "type": "uint256"
        }
      ],
      "stateMutability": "view",
      "type": "function"
    },
    {
      "inputs": [],
      "name": "getInterval",
      "outputs": [
        {
          "internalType": "uint256",
          "name": "",
          "type": "uint256"
        }
      ],
      "stateMutability": "view",
      "type": "function"
    },
    {
      "inputs": [],
      "name": "getLatestTimeStamp",
      "outputs": [
        {
          "internalType": "uint256",
          "name": "",
          "type": "uint256"
        }
      ],
      "stateMutability": "view",
      "type": "function"
    },
    {
      "inputs": [],
      "name": "getNumWords",
      "outputs": [
        {
          "internalType": "uint16",
          "name": "",
          "type": "uint16"
        }
      ],
      "stateMutability": "pure",
      "type": "function"
    },
    {
      "inputs": [],
      "name": "getNumberOfPlayers",
      "outputs": [
        {
          "internalType": "uint256",
          "name": "",
          "type": "uint256"
        }
      ],
      "stateMutability": "view",
      "type": "function"
    },
    {
      "inputs": [
        {
          "internalType": "uint256",
          "name": "index",
          "type": "uint256"
        }
      ],
      "name": "getPlayer",
      "outputs": [
        {
          "internalType": "address",
          "name": "",
          "type": "address"
        }
      ],
      "stateMutability": "view",
      "type": "function"
    },
    {
      "inputs": [],
      "name": "getRaffleState",
      "outputs": [
        {
          "internalType": "enum Raffle.RaffleState",
          "name": "",
          "type": "uint8"
        }
      ],
      "stateMutability": "view",
      "type": "function"
    },
    {
      "inputs": [],
      "name": "getRecentWinner",
      "outputs": [
        {
          "internalType": "address",
          "name": "",
          "type": "address"
        }
      ],
      "stateMutability": "view",
      "type": "function"
    },
    {
      "inputs": [],
      "name": "getRequestConfirmations",
      "outputs": [
        {
          "internalType": "uint256",
          "name": "",
          "type": "uint256"
        }
      ],
      "stateMutability": "pure",
      "type": "function"
    },
    {
      "inputs": [],
      "name": "owner",
      "outputs": [
        {
          "internalType": "address",
          "name": "",
          "type": "address"
        }
      ],
      "stateMutability": "view",
      "type": "function"
    },
    {
      "inputs": [
        {
          "internalType": "bytes",
          "name": "",
          "type": "bytes"
        }
      ],
      "name": "performUpkeep",
      "outputs": [],
      "stateMutability": "nonpayable",
      "type": "function"
    },
    {
      "inputs": [
        {
          "internalType": "uint256",
          "name": "requestId",
          "type": "uint256"
        },
        {
          "internalType": "uint256[]",
          "name": "randomWords",
          "type": "uint256[]"
        }
      ],
      "name": "rawFulfillRandomWords",
      "outputs": [],
      "stateMutability": "nonpayable",
      "type": "function"
    },
    {
      "inputs": [],
      "name": "s_vrfCoordinator",
      "outputs": [
        {
          "internalType": "contract IVRFCoordinatorV2Plus",
          "name": "",
          "type": "address"
        }
      ],
      "stateMutability": "view",
      "type": "function"
    },
    {
      "inputs": [
        {
          "internalType": "address",
          "name": "_vrfCoordinator",
          "type": "address"
        }
      ],
      "name": "setCoordinator",
      "outputs": [],
      "stateMutability": "nonpayable",
      "type": "function"
    },
    {
      "inputs": [
        {
          "internalType": "address",
          "name": "to",
          "type": "address"
        }
      ],
      "name": "transferOwnership",
      "outputs": [],
      "stateMutability": "nonpayable",
      "type": "function"
    }
  ],
  "transactionHash": "0xb0c35fa6180fb5dcbd797633a7ea578b9dead8c411f48507e9735c5326d89296",
  "args": [
    "0xe7f1725E7734CE288F8367e1Bb143E90bb3F0512",
    "10000000000000000",
    "0x3f631d5ec60a0ce16203bcd6aff7ffbc423e22e452786288e172d467354304c8",
    "42965132607487490678292930973775038194722748402352532629193799193991123044640",
    "50000000",
    30
  ],
  "numDeployments": 1,
  "solcInputHash": "d58f61e6c40cc74ebb24095ed4145d5e",
  "bytecode": "0x6101406040523480156200001257600080fd5b5060405162002d3f38038062002d3f833981810160405281019062000038919062000637565b85338060008073ffffffffffffffffffffffffffffffffffffffff168273ffffffffffffffffffffffffffffffffffffffff1603620000ae576040517f08c379a0000000000000000000000000000000000000000000000000000000008152600401620000a59062000734565b60405180910390fd5b816000806101000a81548173ffffffffffffffffffffffffffffffffffffffff021916908373ffffffffffffffffffffffffffffffffffffffff160217905550600073ffffffffffffffffffffffffffffffffffffffff168173ffffffffffffffffffffffffffffffffffffffff161462000135576200013481620002d460201b60201c565b5b505050600073ffffffffffffffffffffffffffffffffffffffff168173ffffffffffffffffffffffffffffffffffffffff16036200019f576040517fd92e233d00000000000000000000000000000000000000000000000000000000815260040160405180910390fd5b80600260006101000a81548173ffffffffffffffffffffffffffffffffffffffff021916908373ffffffffffffffffffffffffffffffffffffffff16021790555050620002296040518060400160405280601281526020017f73657420695f656e7472616e63654665653a000000000000000000000000000081525086336200040360201b60201c565b84608081815250508573ffffffffffffffffffffffffffffffffffffffff1660a08173ffffffffffffffffffffffffffffffffffffffff16815250508360e081815250508261010081815250508163ffffffff1660c08163ffffffff16815250506000600460146101000a81548160ff02191690836001811115620002b357620002b262000756565b5b02179055504260058190555080610120818152505050505050505062000915565b3373ffffffffffffffffffffffffffffffffffffffff168173ffffffffffffffffffffffffffffffffffffffff160362000345576040517f08c379a00000000000000000000000000000000000000000000000000000000081526004016200033c90620007d5565b60405180910390fd5b80600160006101000a81548173ffffffffffffffffffffffffffffffffffffffff021916908373ffffffffffffffffffffffffffffffffffffffff1602179055508073ffffffffffffffffffffffffffffffffffffffff1660008054906101000a900473ffffffffffffffffffffffffffffffffffffffff1673ffffffffffffffffffffffffffffffffffffffff167fed8889f560326eb138920d842192f0eb3dd22b4f139c87a2c57538e05bae127860405160405180910390a350565b620004a78383836040516024016200041e93929190620008a2565b6040516020818303038152906040527f1c7ec448000000000000000000000000000000000000000000000000000000007bffffffffffffffffffffffffffffffffffffffffffffffffffffffff19166020820180517bffffffffffffffffffffffffffffffffffffffffffffffffffffffff8381831617835250505050620004ac60201b60201c565b505050565b620004d281620004cd620004d560201b62000ff417620004f660201b60201c565b60201c565b50565b60006a636f6e736f6c652e6c6f679050600080835160208501845afa505050565b6200050a60201b6200169517819050919050565b62000514620008e6565b565b600080fd5b600073ffffffffffffffffffffffffffffffffffffffff82169050919050565b600062000548826200051b565b9050919050565b6200055a816200053b565b81146200056657600080fd5b50565b6000815190506200057a816200054f565b92915050565b6000819050919050565b620005958162000580565b8114620005a157600080fd5b50565b600081519050620005b5816200058a565b92915050565b6000819050919050565b620005d081620005bb565b8114620005dc57600080fd5b50565b600081519050620005f081620005c5565b92915050565b600063ffffffff82169050919050565b6200061181620005f6565b81146200061d57600080fd5b50565b600081519050620006318162000606565b92915050565b60008060008060008060c0878903121562000657576200065662000516565b5b60006200066789828a0162000569565b96505060206200067a89828a01620005a4565b95505060406200068d89828a01620005df565b9450506060620006a089828a01620005a4565b9350506080620006b389828a0162000620565b92505060a0620006c689828a01620005a4565b9150509295509295509295565b600082825260208201905092915050565b7f43616e6e6f7420736574206f776e657220746f207a65726f0000000000000000600082015250565b60006200071c601883620006d3565b91506200072982620006e4565b602082019050919050565b600060208201905081810360008301526200074f816200070d565b9050919050565b7f4e487b7100000000000000000000000000000000000000000000000000000000600052602160045260246000fd5b7f43616e6e6f74207472616e7366657220746f2073656c66000000000000000000600082015250565b6000620007bd601783620006d3565b9150620007ca8262000785565b602082019050919050565b60006020820190508181036000830152620007f081620007ae565b9050919050565b600081519050919050565b60005b838110156200082257808201518184015260208101905062000805565b60008484015250505050565b6000601f19601f8301169050919050565b60006200084c82620007f7565b620008588185620006d3565b93506200086a81856020860162000802565b62000875816200082e565b840191505092915050565b6200088b8162000580565b82525050565b6200089c816200053b565b82525050565b60006060820190508181036000830152620008be81866200083f565b9050620008cf602083018562000880565b620008de604083018462000891565b949350505050565b7f4e487b7100000000000000000000000000000000000000000000000000000000600052605160045260246000fd5b60805160a05160c05160e05161010051610120516123cc62000973600039600081816109c30152610f41015260006107de015260006107b80152600061080f01526000610771015260008181610400015261050301526123cc6000f3fe6080604052600436106101095760003560e01c80636e04ff0d1161009557806391ad27b41161006457806391ad27b4146103155780639eccacf614610340578063e55ae4e81461036b578063f2fde38b146103a8578063fd6673f5146103d157610109565b80636e04ff0d1461026c57806379ba5097146102aa5780638da5cb5b146102c15780638ea98117146102ec57610109565b8063320229eb116100dc578063320229eb146101975780634585e33b146101c2578063473f1ddc146101eb57806353a2c19a146102165780635f1b0fd81461024157610109565b806309bc33a71461010e578063115cbaf5146101395780631fe543e3146101645780632cfcc5391461018d575b600080fd5b34801561011a57600080fd5b506101236103fc565b604051610130919061175f565b60405180910390f35b34801561014557600080fd5b5061014e610424565b60405161015b91906117f1565b60405180910390f35b34801561017057600080fd5b5061018b600480360381019061018691906118b1565b61043b565b005b610195610501565b005b3480156101a357600080fd5b506101ac6106af565b6040516101b9919061175f565b60405180910390f35b3480156101ce57600080fd5b506101e960048036038101906101e49190611967565b6106b9565b005b3480156101f757600080fd5b506102006108fb565b60405161020d91906119f5565b60405180910390f35b34801561022257600080fd5b5061022b610925565b6040516102389190611a2d565b60405180910390f35b34801561024d57600080fd5b5061025661092e565b604051610263919061175f565b60405180910390f35b34801561027857600080fd5b50610293600480360381019061028e9190611b89565b61093b565b6040516102a1929190611c6c565b60405180910390f35b3480156102b657600080fd5b506102bf610b9e565b005b3480156102cd57600080fd5b506102d6610d33565b6040516102e391906119f5565b60405180910390f35b3480156102f857600080fd5b50610313600480360381019061030e9190611cc8565b610d5c565b005b34801561032157600080fd5b5061032a610f3d565b604051610337919061175f565b60405180910390f35b34801561034c57600080fd5b50610355610f65565b6040516103629190611d54565b60405180910390f35b34801561037757600080fd5b50610392600480360381019061038d9190611d6f565b610f8b565b60405161039f91906119f5565b60405180910390f35b3480156103b457600080fd5b506103cf60048036038101906103ca9190611cc8565b610fd3565b005b3480156103dd57600080fd5b506103e6610fe7565b6040516103f3919061175f565b60405180910390f35b60007f0000000000000000000000000000000000000000000000000000000000000000905090565b6000600460149054906101000a900460ff16905090565b600260009054906101000a900473ffffffffffffffffffffffffffffffffffffffff1673ffffffffffffffffffffffffffffffffffffffff163373ffffffffffffffffffffffffffffffffffffffff16146104f15733600260009054906101000a900473ffffffffffffffffffffffffffffffffffffffff166040517f1cf993f40000000000000000000000000000000000000000000000000000000081526004016104e8929190611d9c565b60405180910390fd5b6104fc838383611015565b505050565b7f000000000000000000000000000000000000000000000000000000000000000034101561059a576105686040518060400160405280601c81526020017f526166666c655f5f4e6f74456e6f756768455448456e74657265643a0000000081525033611248565b6040517fbd4e069500000000000000000000000000000000000000000000000000000000815260040160405180910390fd5b600060018111156105ae576105ad61177a565b5b600460149054906101000a900460ff1660018111156105d0576105cf61177a565b5b14610607576040517f7459aab500000000000000000000000000000000000000000000000000000000815260040160405180910390fd5b6003339080600181540180825580915050600190039060005260206000200160009091909190916101000a81548173ffffffffffffffffffffffffffffffffffffffff021916908373ffffffffffffffffffffffffffffffffffffffff1602179055503373ffffffffffffffffffffffffffffffffffffffff167f0805e1d667bddb8a95f0f09880cf94f403fb596ce79928d9f29b74203ba284d460405160405180910390a2565b6000600554905090565b60006106d36040518060200160405280600081525061093b565b509050806107425747600380549050600460149054906101000a900460ff1660018111156107045761070361177a565b5b6040517f584327aa00000000000000000000000000000000000000000000000000000000815260040161073993929190611dc5565b60405180910390fd5b6001600460146101000a81548160ff021916908360018111156107685761076761177a565b5b021790555060007f000000000000000000000000000000000000000000000000000000000000000073ffffffffffffffffffffffffffffffffffffffff16639b1c385e6040518060c001604052807f000000000000000000000000000000000000000000000000000000000000000081526020017f00000000000000000000000000000000000000000000000000000000000000008152602001600361ffff1681526020017f000000000000000000000000000000000000000000000000000000000000000063ffffffff168152602001600161ffff1663ffffffff1681526020016108646040518060200160405280600015158152506112e4565b8152506040518263ffffffff1660e01b81526004016108839190611f25565b6020604051808303816000875af11580156108a2573d6000803e3d6000fd5b505050506040513d601f19601f820116820180604052508101906108c69190611f5c565b9050807fcd6e45c8998311cab7e9d4385596cac867e20a0587194b954fa3a731c93ce78b60405160405180910390a250505050565b6000600460009054906101000a900473ffffffffffffffffffffffffffffffffffffffff16905090565b60006001905090565b6000600361ffff16905090565b6000606061097e6040518060400160405280601081526020017f626c6f636b2e74696d657374616d703a000000000000000000000000000000008152504261137c565b6109bf6040518060400160405280601081526020017f735f6c61737454696d655374616d703a0000000000000000000000000000000081525060055461137c565b60007f0000000000000000000000000000000000000000000000000000000000000000600554426109f09190611fb8565b119050600080600380549050119050600080471190506000806001811115610a1b57610a1a61177a565b5b600460149054906101000a900460ff166001811115610a3d57610a3c61177a565b5b149050610a7f6040518060400160405280600b81526020017f74696d655061737365643a00000000000000000000000000000000000000000081525085611418565b610abe6040518060400160405280600b81526020017f686173506c61796572733a00000000000000000000000000000000000000000081525084611418565b610afd6040518060400160405280600b81526020017f68617342616c616e63653a00000000000000000000000000000000000000000081525083611418565b610b3c6040518060400160405280600781526020017f69734f70656e3a0000000000000000000000000000000000000000000000000081525082611418565b838015610b465750825b8015610b4f5750815b8015610b585750805b9550856040518060400160405280600381526020017f30783000000000000000000000000000000000000000000000000000000000008152509550955050505050915091565b600160009054906101000a900473ffffffffffffffffffffffffffffffffffffffff1673ffffffffffffffffffffffffffffffffffffffff163373ffffffffffffffffffffffffffffffffffffffff1614610c2e576040517f08c379a0000000000000000000000000000000000000000000000000000000008152600401610c2590612049565b60405180910390fd5b60008060009054906101000a900473ffffffffffffffffffffffffffffffffffffffff169050336000806101000a81548173ffffffffffffffffffffffffffffffffffffffff021916908373ffffffffffffffffffffffffffffffffffffffff1602179055506000600160006101000a81548173ffffffffffffffffffffffffffffffffffffffff021916908373ffffffffffffffffffffffffffffffffffffffff1602179055503373ffffffffffffffffffffffffffffffffffffffff168173ffffffffffffffffffffffffffffffffffffffff167f8be0079c531659141344cd1fd0a4f28419497f9722a3daafe3b4186f6b6457e060405160405180910390a350565b60008060009054906101000a900473ffffffffffffffffffffffffffffffffffffffff16905090565b610d64610d33565b73ffffffffffffffffffffffffffffffffffffffff163373ffffffffffffffffffffffffffffffffffffffff1614158015610ded5750600260009054906101000a900473ffffffffffffffffffffffffffffffffffffffff1673ffffffffffffffffffffffffffffffffffffffff163373ffffffffffffffffffffffffffffffffffffffff1614155b15610e5c5733610dfb610d33565b600260009054906101000a900473ffffffffffffffffffffffffffffffffffffffff166040517f061db9c1000000000000000000000000000000000000000000000000000000008152600401610e5393929190612069565b60405180910390fd5b600073ffffffffffffffffffffffffffffffffffffffff168173ffffffffffffffffffffffffffffffffffffffff1603610ec2576040517fd92e233d00000000000000000000000000000000000000000000000000000000815260040160405180910390fd5b80600260006101000a81548173ffffffffffffffffffffffffffffffffffffffff021916908373ffffffffffffffffffffffffffffffffffffffff1602179055507fd1a6a14209a385a964d036e404cb5cfb71f4000cdb03c9366292430787261be681604051610f3291906119f5565b60405180910390a150565b60007f0000000000000000000000000000000000000000000000000000000000000000905090565b600260009054906101000a900473ffffffffffffffffffffffffffffffffffffffff1681565b600060038281548110610fa157610fa06120a0565b5b9060005260206000200160009054906101000a900473ffffffffffffffffffffffffffffffffffffffff169050919050565b610fdb6114b4565b610fe481611544565b50565b6000600380549050905090565b60006a636f6e736f6c652e6c6f679050600080835160208501845afa505050565b600060038054905083836000818110611031576110306120a0565b5b9050602002013561104291906120fe565b905060006003828154811061105a576110596120a0565b5b9060005260206000200160009054906101000a900473ffffffffffffffffffffffffffffffffffffffff1690506000600460146101000a81548160ff021916908360018111156110ad576110ac61177a565b5b021790555042600581905550600067ffffffffffffffff8111156110d4576110d3611a5e565b5b6040519080825280602002602001820160405280156111025781602001602082028036833780820191505090505b506003908051906020019061111892919061169f565b5080600460006101000a81548173ffffffffffffffffffffffffffffffffffffffff021916908373ffffffffffffffffffffffffffffffffffffffff16021790555060008173ffffffffffffffffffffffffffffffffffffffff164760405161118090612160565b60006040518083038185875af1925050503d80600081146111bd576040519150601f19603f3d011682016040523d82523d6000602084013e6111c2565b606091505b50509050806111fd576040517fa1d04b3900000000000000000000000000000000000000000000000000000000815260040160405180910390fd5b8173ffffffffffffffffffffffffffffffffffffffff167f5b690ec4a06fe979403046eaeea5b3ce38524683c3001f662c8b5a829632f7df60405160405180910390a2505050505050565b6112e0828260405160240161125e9291906121b9565b6040516020818303038152906040527f319af333000000000000000000000000000000000000000000000000000000007bffffffffffffffffffffffffffffffffffffffffffffffffffffffff19166020820180517bffffffffffffffffffffffffffffffffffffffffffffffffffffffff8381831617835250505050611670565b5050565b60607f92fd13387c7fe7befbc38d303d6468778fb9731bc4583f17d92989c6fcfdeaaa826040516024016113189190612214565b604051602081830303815290604052907bffffffffffffffffffffffffffffffffffffffffffffffffffffffff19166020820180517bffffffffffffffffffffffffffffffffffffffffffffffffffffffff83818316178352505050509050919050565b611414828260405160240161139292919061222f565b6040516020818303038152906040527fb60e72cc000000000000000000000000000000000000000000000000000000007bffffffffffffffffffffffffffffffffffffffffffffffffffffffff19166020820180517bffffffffffffffffffffffffffffffffffffffffffffffffffffffff8381831617835250505050611670565b5050565b6114b0828260405160240161142e92919061225f565b6040516020818303038152906040527fc3b55635000000000000000000000000000000000000000000000000000000007bffffffffffffffffffffffffffffffffffffffffffffffffffffffff19166020820180517bffffffffffffffffffffffffffffffffffffffffffffffffffffffff8381831617835250505050611670565b5050565b60008054906101000a900473ffffffffffffffffffffffffffffffffffffffff1673ffffffffffffffffffffffffffffffffffffffff163373ffffffffffffffffffffffffffffffffffffffff1614611542576040517f08c379a0000000000000000000000000000000000000000000000000000000008152600401611539906122db565b60405180910390fd5b565b3373ffffffffffffffffffffffffffffffffffffffff168173ffffffffffffffffffffffffffffffffffffffff16036115b2576040517f08c379a00000000000000000000000000000000000000000000000000000000081526004016115a990612347565b60405180910390fd5b80600160006101000a81548173ffffffffffffffffffffffffffffffffffffffff021916908373ffffffffffffffffffffffffffffffffffffffff1602179055508073ffffffffffffffffffffffffffffffffffffffff1660008054906101000a900473ffffffffffffffffffffffffffffffffffffffff1673ffffffffffffffffffffffffffffffffffffffff167fed8889f560326eb138920d842192f0eb3dd22b4f139c87a2c57538e05bae127860405160405180910390a350565b6116878161167f610ff461168a565b63ffffffff16565b50565b611695819050919050565b61169d612367565b565b828054828255906000526020600020908101928215611718579160200282015b828111156117175782518260006101000a81548173ffffffffffffffffffffffffffffffffffffffff021916908373ffffffffffffffffffffffffffffffffffffffff160217905550916020019190600101906116bf565b5b5090506117259190611729565b5090565b5b8082111561174257600081600090555060010161172a565b5090565b6000819050919050565b61175981611746565b82525050565b60006020820190506117746000830184611750565b92915050565b7f4e487b7100000000000000000000000000000000000000000000000000000000600052602160045260246000fd5b600281106117ba576117b961177a565b5b50565b60008190506117cb826117a9565b919050565b60006117db826117bd565b9050919050565b6117eb816117d0565b82525050565b600060208201905061180660008301846117e2565b92915050565b6000604051905090565b600080fd5b600080fd5b61182981611746565b811461183457600080fd5b50565b60008135905061184681611820565b92915050565b600080fd5b600080fd5b600080fd5b60008083601f8401126118715761187061184c565b5b8235905067ffffffffffffffff81111561188e5761188d611851565b5b6020830191508360208202830111156118aa576118a9611856565b5b9250929050565b6000806000604084860312156118ca576118c9611816565b5b60006118d886828701611837565b935050602084013567ffffffffffffffff8111156118f9576118f861181b565b5b6119058682870161185b565b92509250509250925092565b60008083601f8401126119275761192661184c565b5b8235905067ffffffffffffffff81111561194457611943611851565b5b6020830191508360018202830111156119605761195f611856565b5b9250929050565b6000806020838503121561197e5761197d611816565b5b600083013567ffffffffffffffff81111561199c5761199b61181b565b5b6119a885828601611911565b92509250509250929050565b600073ffffffffffffffffffffffffffffffffffffffff82169050919050565b60006119df826119b4565b9050919050565b6119ef816119d4565b82525050565b6000602082019050611a0a60008301846119e6565b92915050565b600061ffff82169050919050565b611a2781611a10565b82525050565b6000602082019050611a426000830184611a1e565b92915050565b600080fd5b6000601f19601f8301169050919050565b7f4e487b7100000000000000000000000000000000000000000000000000000000600052604160045260246000fd5b611a9682611a4d565b810181811067ffffffffffffffff82111715611ab557611ab4611a5e565b5b80604052505050565b6000611ac861180c565b9050611ad48282611a8d565b919050565b600067ffffffffffffffff821115611af457611af3611a5e565b5b611afd82611a4d565b9050602081019050919050565b82818337600083830152505050565b6000611b2c611b2784611ad9565b611abe565b905082815260208101848484011115611b4857611b47611a48565b5b611b53848285611b0a565b509392505050565b600082601f830112611b7057611b6f61184c565b5b8135611b80848260208601611b19565b91505092915050565b600060208284031215611b9f57611b9e611816565b5b600082013567ffffffffffffffff811115611bbd57611bbc61181b565b5b611bc984828501611b5b565b91505092915050565b60008115159050919050565b611be781611bd2565b82525050565b600081519050919050565b600082825260208201905092915050565b60005b83811015611c27578082015181840152602081019050611c0c565b60008484015250505050565b6000611c3e82611bed565b611c488185611bf8565b9350611c58818560208601611c09565b611c6181611a4d565b840191505092915050565b6000604082019050611c816000830185611bde565b8181036020830152611c938184611c33565b90509392505050565b611ca5816119d4565b8114611cb057600080fd5b50565b600081359050611cc281611c9c565b92915050565b600060208284031215611cde57611cdd611816565b5b6000611cec84828501611cb3565b91505092915050565b6000819050919050565b6000611d1a611d15611d10846119b4565b611cf5565b6119b4565b9050919050565b6000611d2c82611cff565b9050919050565b6000611d3e82611d21565b9050919050565b611d4e81611d33565b82525050565b6000602082019050611d696000830184611d45565b92915050565b600060208284031215611d8557611d84611816565b5b6000611d9384828501611837565b91505092915050565b6000604082019050611db160008301856119e6565b611dbe60208301846119e6565b9392505050565b6000606082019050611dda6000830186611750565b611de76020830185611750565b611df46040830184611750565b949350505050565b6000819050919050565b611e0f81611dfc565b82525050565b611e1e81611746565b82525050565b611e2d81611a10565b82525050565b600063ffffffff82169050919050565b611e4c81611e33565b82525050565b600082825260208201905092915050565b6000611e6e82611bed565b611e788185611e52565b9350611e88818560208601611c09565b611e9181611a4d565b840191505092915050565b600060c083016000830151611eb46000860182611e06565b506020830151611ec76020860182611e15565b506040830151611eda6040860182611e24565b506060830151611eed6060860182611e43565b506080830151611f006080860182611e43565b5060a083015184820360a0860152611f188282611e63565b9150508091505092915050565b60006020820190508181036000830152611f3f8184611e9c565b905092915050565b600081519050611f5681611820565b92915050565b600060208284031215611f7257611f71611816565b5b6000611f8084828501611f47565b91505092915050565b7f4e487b7100000000000000000000000000000000000000000000000000000000600052601160045260246000fd5b6000611fc382611746565b9150611fce83611746565b9250828203905081811115611fe657611fe5611f89565b5b92915050565b600082825260208201905092915050565b7f4d7573742062652070726f706f736564206f776e657200000000000000000000600082015250565b6000612033601683611fec565b915061203e82611ffd565b602082019050919050565b6000602082019050818103600083015261206281612026565b9050919050565b600060608201905061207e60008301866119e6565b61208b60208301856119e6565b61209860408301846119e6565b949350505050565b7f4e487b7100000000000000000000000000000000000000000000000000000000600052603260045260246000fd5b7f4e487b7100000000000000000000000000000000000000000000000000000000600052601260045260246000fd5b600061210982611746565b915061211483611746565b925082612124576121236120cf565b5b828206905092915050565b600081905092915050565b50565b600061214a60008361212f565b91506121558261213a565b600082019050919050565b600061216b8261213d565b9150819050919050565b600081519050919050565b600061218b82612175565b6121958185611fec565b93506121a5818560208601611c09565b6121ae81611a4d565b840191505092915050565b600060408201905081810360008301526121d38185612180565b90506121e260208301846119e6565b9392505050565b6121f281611bd2565b82525050565b60208201600082015161220e60008501826121e9565b50505050565b600060208201905061222960008301846121f8565b92915050565b600060408201905081810360008301526122498185612180565b90506122586020830184611750565b9392505050565b600060408201905081810360008301526122798185612180565b90506122886020830184611bde565b9392505050565b7f4f6e6c792063616c6c61626c65206279206f776e657200000000000000000000600082015250565b60006122c5601683611fec565b91506122d08261228f565b602082019050919050565b600060208201905081810360008301526122f4816122b8565b9050919050565b7f43616e6e6f74207472616e7366657220746f2073656c66000000000000000000600082015250565b6000612331601783611fec565b915061233c826122fb565b602082019050919050565b6000602082019050818103600083015261236081612324565b9050919050565b7f4e487b7100000000000000000000000000000000000000000000000000000000600052605160045260246000fdfea2646970667358221220c08b1b02a09466d62397835b0574fa7c7ec406c3742a2b0f960624497095e1ed64736f6c63430008130033",
  "devdoc": {
    "kind": "dev",
    "methods": {},
    "version": 1
  },
  "userdoc": {
    "kind": "user",
    "methods": {
      "acceptOwnership()": {
        "notice": "Allows an ownership transfer to be completed by the recipient."
      },
      "checkUpkeep(bytes)": {
        "notice": "This is the function that the Chainlink Automation node calls to check if the upkeep is needed. The following should be true for this to return true: 1. The time interval has passed between raffle runs 2. The lottery should have at leat one player and have some TTH 3. Our subscription is funded with LINK 4. The lottery should be in an open state"
      },
      "owner()": {
        "notice": "Get the current owner"
      },
      "setCoordinator(address)": {
        "notice": "Sets the VRF Coordinator addressThis method should only be callable by the coordinator or contract owner"
      },
      "transferOwnership(address)": {
        "notice": "Allows an owner to begin transferring ownership to a new address."
      }
    },
    "version": 1
  },
  "storageLayout": {
    "storage": [
      {
        "astId": 48,
        "contract": "contracts/Raffle.sol:Raffle",
        "label": "s_owner",
        "offset": 0,
        "slot": "0",
        "type": "t_address"
      },
      {
        "astId": 50,
        "contract": "contracts/Raffle.sol:Raffle",
        "label": "s_pendingOwner",
        "offset": 0,
        "slot": "1",
        "type": "t_address"
      },
      {
        "astId": 2331,
        "contract": "contracts/Raffle.sol:Raffle",
        "label": "s_vrfCoordinator",
        "offset": 0,
        "slot": "2",
        "type": "t_contract(IVRFCoordinatorV2Plus)2480"
      },
      {
        "astId": 3487,
        "contract": "contracts/Raffle.sol:Raffle",
        "label": "s_players",
        "offset": 0,
        "slot": "3",
        "type": "t_array(t_address_payable)dyn_storage"
      },
      {
        "astId": 3504,
        "contract": "contracts/Raffle.sol:Raffle",
        "label": "s_recentWinner",
        "offset": 0,
        "slot": "4",
        "type": "t_address"
      },
      {
        "astId": 3507,
        "contract": "contracts/Raffle.sol:Raffle",
        "label": "s_raffleState",
        "offset": 20,
        "slot": "4",
        "type": "t_enum(RaffleState)3482"
      },
      {
        "astId": 3509,
        "contract": "contracts/Raffle.sol:Raffle",
        "label": "s_lastTimeStamp",
        "offset": 0,
        "slot": "5",
        "type": "t_uint256"
      }
    ],
    "types": {
      "t_address": {
        "encoding": "inplace",
        "label": "address",
        "numberOfBytes": "20"
      },
      "t_address_payable": {
        "encoding": "inplace",
        "label": "address payable",
        "numberOfBytes": "20"
      },
      "t_array(t_address_payable)dyn_storage": {
        "base": "t_address_payable",
        "encoding": "dynamic_array",
        "label": "address payable[]",
        "numberOfBytes": "32"
      },
      "t_contract(IVRFCoordinatorV2Plus)2480": {
        "encoding": "inplace",
        "label": "contract IVRFCoordinatorV2Plus",
        "numberOfBytes": "20"
      },
      "t_enum(RaffleState)3482": {
        "encoding": "inplace",
        "label": "enum Raffle.RaffleState",
        "numberOfBytes": "1"
      },
      "t_uint256": {
        "encoding": "inplace",
        "label": "uint256",
        "numberOfBytes": "32"
      }
    }
  }
}